{
	"proposal.sol": {
		"ProposalContract": {
			"abi": [
				{
					"inputs": [],
					"stateMutability": "nonpayable",
					"type": "constructor"
				},
				{
					"inputs": [
						{
							"internalType": "string",
							"name": "_description",
							"type": "string"
						},
						{
							"internalType": "uint256",
							"name": "_total_vote_to_end",
							"type": "uint256"
						}
					],
					"name": "create",
					"outputs": [],
					"stateMutability": "nonpayable",
					"type": "function"
				},
				{
					"inputs": [],
					"name": "getCurrentProposal",
					"outputs": [
						{
							"components": [
								{
									"internalType": "string",
									"name": "description",
									"type": "string"
								},
								{
									"internalType": "uint256",
									"name": "approve",
									"type": "uint256"
								},
								{
									"internalType": "uint256",
									"name": "reject",
									"type": "uint256"
								},
								{
									"internalType": "uint256",
									"name": "pass",
									"type": "uint256"
								},
								{
									"internalType": "uint256",
									"name": "total_vote_to_end",
									"type": "uint256"
								},
								{
									"internalType": "bool",
									"name": "current_state",
									"type": "bool"
								},
								{
									"internalType": "bool",
									"name": "is_active",
									"type": "bool"
								}
							],
							"internalType": "struct ProposalContract.Proposal",
							"name": "",
							"type": "tuple"
						}
					],
					"stateMutability": "view",
					"type": "function"
				},
				{
					"inputs": [
						{
							"internalType": "uint256",
							"name": "number",
							"type": "uint256"
						}
					],
					"name": "getProposal",
					"outputs": [
						{
							"components": [
								{
									"internalType": "string",
									"name": "description",
									"type": "string"
								},
								{
									"internalType": "uint256",
									"name": "approve",
									"type": "uint256"
								},
								{
									"internalType": "uint256",
									"name": "reject",
									"type": "uint256"
								},
								{
									"internalType": "uint256",
									"name": "pass",
									"type": "uint256"
								},
								{
									"internalType": "uint256",
									"name": "total_vote_to_end",
									"type": "uint256"
								},
								{
									"internalType": "bool",
									"name": "current_state",
									"type": "bool"
								},
								{
									"internalType": "bool",
									"name": "is_active",
									"type": "bool"
								}
							],
							"internalType": "struct ProposalContract.Proposal",
							"name": "",
							"type": "tuple"
						}
					],
					"stateMutability": "view",
					"type": "function"
				},
				{
					"inputs": [
						{
							"internalType": "address",
							"name": "_address",
							"type": "address"
						}
					],
					"name": "isVoted",
					"outputs": [
						{
							"internalType": "bool",
							"name": "",
							"type": "bool"
						}
					],
					"stateMutability": "view",
					"type": "function"
				},
				{
					"inputs": [
						{
							"internalType": "address",
							"name": "new_owner",
							"type": "address"
						}
					],
					"name": "setOwner",
					"outputs": [],
					"stateMutability": "nonpayable",
					"type": "function"
				},
				{
					"inputs": [],
					"name": "teminateProposal",
					"outputs": [],
					"stateMutability": "nonpayable",
					"type": "function"
				},
				{
					"inputs": [
						{
							"internalType": "uint8",
							"name": "choice",
							"type": "uint8"
						}
					],
					"name": "vote",
					"outputs": [],
					"stateMutability": "nonpayable",
					"type": "function"
				}
			],
			"devdoc": {
				"kind": "dev",
				"methods": {},
				"version": 1
			},
			"evm": {
				"assembly": "    /* \"proposal.sol\":63:3805  contract ProposalContract {... */\n  mstore(0x40, 0x80)\n    /* \"proposal.sol\":913:1007  constructor() {... */\n  callvalue\n  dup1\n  iszero\n  tag_1\n  jumpi\n  0x00\n  dup1\n  revert\ntag_1:\n  pop\n    /* \"proposal.sol\":946:956  msg.sender */\n  caller\n    /* \"proposal.sol\":938:943  owner */\n  0x00\n  dup1\n    /* \"proposal.sol\":938:956  owner = msg.sender */\n  0x0100\n  exp\n  dup2\n  sload\n  dup2\n  0xffffffffffffffffffffffffffffffffffffffff\n  mul\n  not\n  and\n  swap1\n  dup4\n  0xffffffffffffffffffffffffffffffffffffffff\n  and\n  mul\n  or\n  swap1\n  sstore\n  pop\n    /* \"proposal.sol\":967:982  voted_addresses */\n  0x03\n    /* \"proposal.sol\":988:998  msg.sender */\n  caller\n    /* \"proposal.sol\":967:999  voted_addresses.push(msg.sender) */\n  swap1\n  dup1\n  0x01\n  dup2\n  sload\n  add\n  dup1\n  dup3\n  sstore\n  dup1\n  swap2\n  pop\n  pop\n  0x01\n  swap1\n  sub\n  swap1\n  0x00\n  mstore\n  keccak256(0x00, 0x20)\n  add\n  0x00\n  swap1\n  swap2\n  swap1\n  swap2\n  swap1\n  swap2\n  0x0100\n  exp\n  dup2\n  sload\n  dup2\n  0xffffffffffffffffffffffffffffffffffffffff\n  mul\n  not\n  and\n  swap1\n  dup4\n  0xffffffffffffffffffffffffffffffffffffffff\n  and\n  mul\n  or\n  swap1\n  sstore\n  pop\n    /* \"proposal.sol\":63:3805  contract ProposalContract {... */\n  dataSize(sub_0)\n  dup1\n  dataOffset(sub_0)\n  0x00\n  codecopy\n  0x00\n  return\nstop\n\nsub_0: assembly {\n        /* \"proposal.sol\":63:3805  contract ProposalContract {... */\n      mstore(0x40, 0x80)\n      callvalue\n      dup1\n      iszero\n      tag_1\n      jumpi\n      0x00\n      dup1\n      revert\n    tag_1:\n      pop\n      jumpi(tag_2, lt(calldatasize, 0x04))\n      shr(0xe0, calldataload(0x00))\n      dup1\n      0x89190393\n      gt\n      tag_10\n      jumpi\n      dup1\n      0x89190393\n      eq\n      tag_6\n      jumpi\n      dup1\n      0xb3f98adc\n      eq\n      tag_7\n      jumpi\n      dup1\n      0xc7f758a8\n      eq\n      tag_8\n      jumpi\n      dup1\n      0xcbff75cb\n      eq\n      tag_9\n      jumpi\n      jump(tag_2)\n    tag_10:\n      dup1\n      0x13af4035\n      eq\n      tag_3\n      jumpi\n      dup1\n      0x41ec6870\n      eq\n      tag_4\n      jumpi\n      dup1\n      0x46f81a87\n      eq\n      tag_5\n      jumpi\n    tag_2:\n      0x00\n      dup1\n      revert\n        /* \"proposal.sol\":1421:1513  function setOwner(address new_owner) external onlyOwner {... */\n    tag_3:\n      tag_11\n      0x04\n      dup1\n      calldatasize\n      sub\n      dup2\n      add\n      swap1\n      tag_12\n      swap2\n      swap1\n      tag_13\n      jump\t// in\n    tag_12:\n      tag_14\n      jump\t// in\n    tag_11:\n      stop\n        /* \"proposal.sol\":3546:3666  function getCurrentProposal() external view returns(Proposal memory) {... */\n    tag_4:\n      tag_15\n      tag_16\n      jump\t// in\n    tag_15:\n      mload(0x40)\n      tag_17\n      swap2\n      swap1\n      tag_18\n      jump\t// in\n    tag_17:\n      mload(0x40)\n      dup1\n      swap2\n      sub\n      swap1\n      return\n        /* \"proposal.sol\":1521:1748  function create(string calldata _description, uint256 _total_vote_to_end) external onlyOwner {... */\n    tag_5:\n      tag_19\n      0x04\n      dup1\n      calldatasize\n      sub\n      dup2\n      add\n      swap1\n      tag_20\n      swap2\n      swap1\n      tag_21\n      jump\t// in\n    tag_20:\n      tag_22\n      jump\t// in\n    tag_19:\n      stop\n        /* \"proposal.sol\":3151:3267  function teminateProposal() external onlyOwner active {... */\n    tag_6:\n      tag_23\n      tag_24\n      jump\t// in\n    tag_23:\n      stop\n        /* \"proposal.sol\":1762:2633  function vote(uint8 choice) external active newVoter(msg.sender){... */\n    tag_7:\n      tag_25\n      0x04\n      dup1\n      calldatasize\n      sub\n      dup2\n      add\n      swap1\n      tag_26\n      swap2\n      swap1\n      tag_27\n      jump\t// in\n    tag_26:\n      tag_28\n      jump\t// in\n    tag_25:\n      stop\n        /* \"proposal.sol\":3676:3802  function getProposal(uint256 number) external view returns(Proposal memory) {... */\n    tag_8:\n      tag_29\n      0x04\n      dup1\n      calldatasize\n      sub\n      dup2\n      add\n      swap1\n      tag_30\n      swap2\n      swap1\n      tag_31\n      jump\t// in\n    tag_30:\n      tag_32\n      jump\t// in\n    tag_29:\n      mload(0x40)\n      tag_33\n      swap2\n      swap1\n      tag_18\n      jump\t// in\n    tag_33:\n      mload(0x40)\n      dup1\n      swap2\n      sub\n      swap1\n      return\n        /* \"proposal.sol\":3275:3536  function isVoted(address _address) public view returns (bool) {... */\n    tag_9:\n      tag_34\n      0x04\n      dup1\n      calldatasize\n      sub\n      dup2\n      add\n      swap1\n      tag_35\n      swap2\n      swap1\n      tag_13\n      jump\t// in\n    tag_35:\n      tag_36\n      jump\t// in\n    tag_34:\n      mload(0x40)\n      tag_37\n      swap2\n      swap1\n      tag_38\n      jump\t// in\n    tag_37:\n      mload(0x40)\n      dup1\n      swap2\n      sub\n      swap1\n      return\n        /* \"proposal.sol\":1421:1513  function setOwner(address new_owner) external onlyOwner {... */\n    tag_14:\n        /* \"proposal.sol\":1069:1074  owner */\n      0x00\n      dup1\n      sload\n      swap1\n      0x0100\n      exp\n      swap1\n      div\n      0xffffffffffffffffffffffffffffffffffffffff\n      and\n        /* \"proposal.sol\":1055:1074  msg.sender == owner */\n      0xffffffffffffffffffffffffffffffffffffffff\n      and\n        /* \"proposal.sol\":1055:1065  msg.sender */\n      caller\n        /* \"proposal.sol\":1055:1074  msg.sender == owner */\n      0xffffffffffffffffffffffffffffffffffffffff\n      and\n      eq\n        /* \"proposal.sol\":1047:1075  require(msg.sender == owner) */\n      tag_40\n      jumpi\n      0x00\n      dup1\n      revert\n    tag_40:\n        /* \"proposal.sol\":1496:1505  new_owner */\n      dup1\n        /* \"proposal.sol\":1488:1493  owner */\n      0x00\n      dup1\n        /* \"proposal.sol\":1488:1505  owner = new_owner */\n      0x0100\n      exp\n      dup2\n      sload\n      dup2\n      0xffffffffffffffffffffffffffffffffffffffff\n      mul\n      not\n      and\n      swap1\n      dup4\n      0xffffffffffffffffffffffffffffffffffffffff\n      and\n      mul\n      or\n      swap1\n      sstore\n      pop\n        /* \"proposal.sol\":1421:1513  function setOwner(address new_owner) external onlyOwner {... */\n      pop\n      jump\t// out\n        /* \"proposal.sol\":3546:3666  function getCurrentProposal() external view returns(Proposal memory) {... */\n    tag_16:\n        /* \"proposal.sol\":3598:3613  Proposal memory */\n      tag_42\n      tag_43\n      jump\t// in\n    tag_42:\n        /* \"proposal.sol\":3633:3649  proposal_history */\n      0x02\n        /* \"proposal.sol\":3633:3658  proposal_history[counter] */\n      0x00\n        /* \"proposal.sol\":3650:3657  counter */\n      sload(0x01)\n        /* \"proposal.sol\":3633:3658  proposal_history[counter] */\n      dup2\n      mstore\n      0x20\n      add\n      swap1\n      dup2\n      mstore\n      0x20\n      add\n      0x00\n      keccak256\n        /* \"proposal.sol\":3626:3658  return proposal_history[counter] */\n      mload(0x40)\n      dup1\n      0xe0\n      add\n      0x40\n      mstore\n      swap1\n      dup2\n      0x00\n      dup3\n      add\n      dup1\n      sload\n      tag_45\n      swap1\n      tag_46\n      jump\t// in\n    tag_45:\n      dup1\n      0x1f\n      add\n      0x20\n      dup1\n      swap2\n      div\n      mul\n      0x20\n      add\n      mload(0x40)\n      swap1\n      dup2\n      add\n      0x40\n      mstore\n      dup1\n      swap3\n      swap2\n      swap1\n      dup2\n      dup2\n      mstore\n      0x20\n      add\n      dup3\n      dup1\n      sload\n      tag_47\n      swap1\n      tag_46\n      jump\t// in\n    tag_47:\n      dup1\n      iszero\n      tag_48\n      jumpi\n      dup1\n      0x1f\n      lt\n      tag_49\n      jumpi\n      0x0100\n      dup1\n      dup4\n      sload\n      div\n      mul\n      dup4\n      mstore\n      swap2\n      0x20\n      add\n      swap2\n      jump(tag_48)\n    tag_49:\n      dup3\n      add\n      swap2\n      swap1\n      0x00\n      mstore\n      keccak256(0x00, 0x20)\n      swap1\n    tag_50:\n      dup2\n      sload\n      dup2\n      mstore\n      swap1\n      0x01\n      add\n      swap1\n      0x20\n      add\n      dup1\n      dup4\n      gt\n      tag_50\n      jumpi\n      dup3\n      swap1\n      sub\n      0x1f\n      and\n      dup3\n      add\n      swap2\n    tag_48:\n      pop\n      pop\n      pop\n      pop\n      pop\n      dup2\n      mstore\n      0x20\n      add\n      0x01\n      dup3\n      add\n      sload\n      dup2\n      mstore\n      0x20\n      add\n      0x02\n      dup3\n      add\n      sload\n      dup2\n      mstore\n      0x20\n      add\n      0x03\n      dup3\n      add\n      sload\n      dup2\n      mstore\n      0x20\n      add\n      0x04\n      dup3\n      add\n      sload\n      dup2\n      mstore\n      0x20\n      add\n      0x05\n      dup3\n      add\n      0x00\n      swap1\n      sload\n      swap1\n      0x0100\n      exp\n      swap1\n      div\n      0xff\n      and\n      iszero\n      iszero\n      iszero\n      iszero\n      dup2\n      mstore\n      0x20\n      add\n      0x05\n      dup3\n      add\n      0x01\n      swap1\n      sload\n      swap1\n      0x0100\n      exp\n      swap1\n      div\n      0xff\n      and\n      iszero\n      iszero\n      iszero\n      iszero\n      dup2\n      mstore\n      pop\n      pop\n      swap1\n      pop\n        /* \"proposal.sol\":3546:3666  function getCurrentProposal() external view returns(Proposal memory) {... */\n      swap1\n      jump\t// out\n        /* \"proposal.sol\":1521:1748  function create(string calldata _description, uint256 _total_vote_to_end) external onlyOwner {... */\n    tag_22:\n        /* \"proposal.sol\":1069:1074  owner */\n      0x00\n      dup1\n      sload\n      swap1\n      0x0100\n      exp\n      swap1\n      div\n      0xffffffffffffffffffffffffffffffffffffffff\n      and\n        /* \"proposal.sol\":1055:1074  msg.sender == owner */\n      0xffffffffffffffffffffffffffffffffffffffff\n      and\n        /* \"proposal.sol\":1055:1065  msg.sender */\n      caller\n        /* \"proposal.sol\":1055:1074  msg.sender == owner */\n      0xffffffffffffffffffffffffffffffffffffffff\n      and\n      eq\n        /* \"proposal.sol\":1047:1075  require(msg.sender == owner) */\n      tag_52\n      jumpi\n      0x00\n      dup1\n      revert\n    tag_52:\n        /* \"proposal.sol\":1636:1637  1 */\n      0x01\n        /* \"proposal.sol\":1625:1632  counter */\n      dup1\n      0x00\n        /* \"proposal.sol\":1625:1637  counter += 1 */\n      dup3\n      dup3\n      sload\n      tag_54\n      swap2\n      swap1\n      tag_55\n      jump\t// in\n    tag_54:\n      swap3\n      pop\n      pop\n      dup2\n      swap1\n      sstore\n      pop\n        /* \"proposal.sol\":1676:1740  Proposal(_description, 0, 0, 0, _total_vote_to_end, false, true) */\n      mload(0x40)\n      dup1\n      0xe0\n      add\n      0x40\n      mstore\n      dup1\n        /* \"proposal.sol\":1685:1697  _description */\n      dup5\n      dup5\n        /* \"proposal.sol\":1676:1740  Proposal(_description, 0, 0, 0, _total_vote_to_end, false, true) */\n      dup1\n      dup1\n      0x1f\n      add\n      0x20\n      dup1\n      swap2\n      div\n      mul\n      0x20\n      add\n      mload(0x40)\n      swap1\n      dup2\n      add\n      0x40\n      mstore\n      dup1\n      swap4\n      swap3\n      swap2\n      swap1\n      dup2\n      dup2\n      mstore\n      0x20\n      add\n      dup4\n      dup4\n      dup1\n      dup3\n      dup5\n      calldatacopy\n      0x00\n      dup2\n      dup5\n      add\n      mstore\n      not(0x1f)\n      0x1f\n      dup3\n      add\n      and\n      swap1\n      pop\n      dup1\n      dup4\n      add\n      swap3\n      pop\n      pop\n      pop\n      pop\n      pop\n      pop\n      pop\n      dup2\n      mstore\n      0x20\n      add\n        /* \"proposal.sol\":1699:1700  0 */\n      0x00\n        /* \"proposal.sol\":1676:1740  Proposal(_description, 0, 0, 0, _total_vote_to_end, false, true) */\n      dup2\n      mstore\n      0x20\n      add\n        /* \"proposal.sol\":1702:1703  0 */\n      0x00\n        /* \"proposal.sol\":1676:1740  Proposal(_description, 0, 0, 0, _total_vote_to_end, false, true) */\n      dup2\n      mstore\n      0x20\n      add\n        /* \"proposal.sol\":1705:1706  0 */\n      0x00\n        /* \"proposal.sol\":1676:1740  Proposal(_description, 0, 0, 0, _total_vote_to_end, false, true) */\n      dup2\n      mstore\n      0x20\n      add\n        /* \"proposal.sol\":1708:1726  _total_vote_to_end */\n      dup3\n        /* \"proposal.sol\":1676:1740  Proposal(_description, 0, 0, 0, _total_vote_to_end, false, true) */\n      dup2\n      mstore\n      0x20\n      add\n        /* \"proposal.sol\":1728:1733  false */\n      0x00\n        /* \"proposal.sol\":1676:1740  Proposal(_description, 0, 0, 0, _total_vote_to_end, false, true) */\n      iszero\n      iszero\n      dup2\n      mstore\n      0x20\n      add\n        /* \"proposal.sol\":1735:1739  true */\n      0x01\n        /* \"proposal.sol\":1676:1740  Proposal(_description, 0, 0, 0, _total_vote_to_end, false, true) */\n      iszero\n      iszero\n      dup2\n      mstore\n      pop\n        /* \"proposal.sol\":1648:1664  proposal_history */\n      0x02\n        /* \"proposal.sol\":1648:1673  proposal_history[counter] */\n      0x00\n        /* \"proposal.sol\":1665:1672  counter */\n      sload(0x01)\n        /* \"proposal.sol\":1648:1673  proposal_history[counter] */\n      dup2\n      mstore\n      0x20\n      add\n      swap1\n      dup2\n      mstore\n      0x20\n      add\n      0x00\n      keccak256\n        /* \"proposal.sol\":1648:1740  proposal_history[counter] = Proposal(_description, 0, 0, 0, _total_vote_to_end, false, true) */\n      0x00\n      dup3\n      add\n      mload\n      dup2\n      0x00\n      add\n      swap1\n      dup2\n      tag_56\n      swap2\n      swap1\n      tag_57\n      jump\t// in\n    tag_56:\n      pop\n      0x20\n      dup3\n      add\n      mload\n      dup2\n      0x01\n      add\n      sstore\n      0x40\n      dup3\n      add\n      mload\n      dup2\n      0x02\n      add\n      sstore\n      0x60\n      dup3\n      add\n      mload\n      dup2\n      0x03\n      add\n      sstore\n      0x80\n      dup3\n      add\n      mload\n      dup2\n      0x04\n      add\n      sstore\n      0xa0\n      dup3\n      add\n      mload\n      dup2\n      0x05\n      add\n      exp(0x0100, 0x00)\n      dup2\n      sload\n      dup2\n      0xff\n      mul\n      not\n      and\n      swap1\n      dup4\n      iszero\n      iszero\n      mul\n      or\n      swap1\n      sstore\n      pop\n      0xc0\n      dup3\n      add\n      mload\n      dup2\n      0x05\n      add\n      exp(0x0100, 0x01)\n      dup2\n      sload\n      dup2\n      0xff\n      mul\n      not\n      and\n      swap1\n      dup4\n      iszero\n      iszero\n      mul\n      or\n      swap1\n      sstore\n      pop\n      swap1\n      pop\n      pop\n        /* \"proposal.sol\":1521:1748  function create(string calldata _description, uint256 _total_vote_to_end) external onlyOwner {... */\n      pop\n      pop\n      pop\n      jump\t// out\n        /* \"proposal.sol\":3151:3267  function teminateProposal() external onlyOwner active {... */\n    tag_24:\n        /* \"proposal.sol\":1069:1074  owner */\n      0x00\n      dup1\n      sload\n      swap1\n      0x0100\n      exp\n      swap1\n      div\n      0xffffffffffffffffffffffffffffffffffffffff\n      and\n        /* \"proposal.sol\":1055:1074  msg.sender == owner */\n      0xffffffffffffffffffffffffffffffffffffffff\n      and\n        /* \"proposal.sol\":1055:1065  msg.sender */\n      caller\n        /* \"proposal.sol\":1055:1074  msg.sender == owner */\n      0xffffffffffffffffffffffffffffffffffffffff\n      and\n      eq\n        /* \"proposal.sol\":1047:1075  require(msg.sender == owner) */\n      tag_59\n      jumpi\n      0x00\n      dup1\n      revert\n    tag_59:\n        /* \"proposal.sol\":1179:1183  true */\n      0x01\n        /* \"proposal.sol\":1140:1183  proposal_history[counter].is_active == true */\n      iszero\n      iszero\n        /* \"proposal.sol\":1140:1156  proposal_history */\n      0x02\n        /* \"proposal.sol\":1140:1165  proposal_history[counter] */\n      0x00\n        /* \"proposal.sol\":1157:1164  counter */\n      sload(0x01)\n        /* \"proposal.sol\":1140:1165  proposal_history[counter] */\n      dup2\n      mstore\n      0x20\n      add\n      swap1\n      dup2\n      mstore\n      0x20\n      add\n      0x00\n      keccak256\n        /* \"proposal.sol\":1140:1175  proposal_history[counter].is_active */\n      0x05\n      add\n      0x01\n      swap1\n      sload\n      swap1\n      0x0100\n      exp\n      swap1\n      div\n      0xff\n      and\n        /* \"proposal.sol\":1140:1183  proposal_history[counter].is_active == true */\n      iszero\n      iszero\n      eq\n        /* \"proposal.sol\":1132:1184  require(proposal_history[counter].is_active == true) */\n      tag_61\n      jumpi\n      0x00\n      dup1\n      revert\n    tag_61:\n        /* \"proposal.sol\":3254:3259  false */\n      0x00\n        /* \"proposal.sol\":3216:3232  proposal_history */\n      0x02\n        /* \"proposal.sol\":3216:3241  proposal_history[counter] */\n      0x00\n        /* \"proposal.sol\":3233:3240  counter */\n      sload(0x01)\n        /* \"proposal.sol\":3216:3241  proposal_history[counter] */\n      dup2\n      mstore\n      0x20\n      add\n      swap1\n      dup2\n      mstore\n      0x20\n      add\n      0x00\n      keccak256\n        /* \"proposal.sol\":3216:3251  proposal_history[counter].is_active */\n      0x05\n      add\n      0x01\n        /* \"proposal.sol\":3216:3259  proposal_history[counter].is_active = false */\n      0x0100\n      exp\n      dup2\n      sload\n      dup2\n      0xff\n      mul\n      not\n      and\n      swap1\n      dup4\n      iszero\n      iszero\n      mul\n      or\n      swap1\n      sstore\n      pop\n        /* \"proposal.sol\":3151:3267  function teminateProposal() external onlyOwner active {... */\n      jump\t// out\n        /* \"proposal.sol\":1762:2633  function vote(uint8 choice) external active newVoter(msg.sender){... */\n    tag_28:\n        /* \"proposal.sol\":1179:1183  true */\n      0x01\n        /* \"proposal.sol\":1140:1183  proposal_history[counter].is_active == true */\n      iszero\n      iszero\n        /* \"proposal.sol\":1140:1156  proposal_history */\n      0x02\n        /* \"proposal.sol\":1140:1165  proposal_history[counter] */\n      0x00\n        /* \"proposal.sol\":1157:1164  counter */\n      sload(0x01)\n        /* \"proposal.sol\":1140:1165  proposal_history[counter] */\n      dup2\n      mstore\n      0x20\n      add\n      swap1\n      dup2\n      mstore\n      0x20\n      add\n      0x00\n      keccak256\n        /* \"proposal.sol\":1140:1175  proposal_history[counter].is_active */\n      0x05\n      add\n      0x01\n      swap1\n      sload\n      swap1\n      0x0100\n      exp\n      swap1\n      div\n      0xff\n      and\n        /* \"proposal.sol\":1140:1183  proposal_history[counter].is_active == true */\n      iszero\n      iszero\n      eq\n        /* \"proposal.sol\":1132:1184  require(proposal_history[counter].is_active == true) */\n      tag_64\n      jumpi\n      0x00\n      dup1\n      revert\n    tag_64:\n        /* \"proposal.sol\":1815:1825  msg.sender */\n      caller\n        /* \"proposal.sol\":1268:1285  isVoted(_address) */\n      tag_66\n        /* \"proposal.sol\":1276:1284  _address */\n      dup2\n        /* \"proposal.sol\":1268:1275  isVoted */\n      tag_36\n        /* \"proposal.sol\":1268:1285  isVoted(_address) */\n      jump\t// in\n    tag_66:\n        /* \"proposal.sol\":1267:1285  !isVoted(_address) */\n      iszero\n        /* \"proposal.sol\":1259:1315  require(!isVoted(_address), \"Address has already voted\") */\n      tag_67\n      jumpi\n      mload(0x40)\n      0x08c379a000000000000000000000000000000000000000000000000000000000\n      dup2\n      mstore\n      0x04\n      add\n      tag_68\n      swap1\n      tag_69\n      jump\t// in\n    tag_68:\n      mload(0x40)\n      dup1\n      swap2\n      sub\n      swap1\n      revert\n    tag_67:\n        /* \"proposal.sol\":1837:1862  Proposal storage proposal */\n      0x00\n        /* \"proposal.sol\":1865:1881  proposal_history */\n      0x02\n        /* \"proposal.sol\":1865:1890  proposal_history[counter] */\n      0x00\n        /* \"proposal.sol\":1882:1889  counter */\n      sload(0x01)\n        /* \"proposal.sol\":1865:1890  proposal_history[counter] */\n      dup2\n      mstore\n      0x20\n      add\n      swap1\n      dup2\n      mstore\n      0x20\n      add\n      0x00\n      keccak256\n        /* \"proposal.sol\":1837:1890  Proposal storage proposal = proposal_history[counter] */\n      swap1\n      pop\n        /* \"proposal.sol\":1901:1919  uint256 total_vote */\n      0x00\n        /* \"proposal.sol\":1959:1967  proposal */\n      dup2\n        /* \"proposal.sol\":1959:1972  proposal.pass */\n      0x03\n      add\n      sload\n        /* \"proposal.sol\":1941:1949  proposal */\n      dup3\n        /* \"proposal.sol\":1941:1956  proposal.reject */\n      0x02\n      add\n      sload\n        /* \"proposal.sol\":1922:1930  proposal */\n      dup4\n        /* \"proposal.sol\":1922:1938  proposal.approve */\n      0x01\n      add\n      sload\n        /* \"proposal.sol\":1922:1956  proposal.approve + proposal.reject */\n      tag_71\n      swap2\n      swap1\n      tag_55\n      jump\t// in\n    tag_71:\n        /* \"proposal.sol\":1922:1972  proposal.approve + proposal.reject + proposal.pass */\n      tag_72\n      swap2\n      swap1\n      tag_55\n      jump\t// in\n    tag_72:\n        /* \"proposal.sol\":1901:1972  uint256 total_vote = proposal.approve + proposal.reject + proposal.pass */\n      swap1\n      pop\n        /* \"proposal.sol\":1985:2000  voted_addresses */\n      0x03\n        /* \"proposal.sol\":2006:2016  msg.sender */\n      caller\n        /* \"proposal.sol\":1985:2017  voted_addresses.push(msg.sender) */\n      swap1\n      dup1\n      0x01\n      dup2\n      sload\n      add\n      dup1\n      dup3\n      sstore\n      dup1\n      swap2\n      pop\n      pop\n      0x01\n      swap1\n      sub\n      swap1\n      0x00\n      mstore\n      keccak256(0x00, 0x20)\n      add\n      0x00\n      swap1\n      swap2\n      swap1\n      swap2\n      swap1\n      swap2\n      0x0100\n      exp\n      dup2\n      sload\n      dup2\n      0xffffffffffffffffffffffffffffffffffffffff\n      mul\n      not\n      and\n      swap1\n      dup4\n      0xffffffffffffffffffffffffffffffffffffffff\n      and\n      mul\n      or\n      swap1\n      sstore\n      pop\n        /* \"proposal.sol\":2044:2045  1 */\n      0x01\n        /* \"proposal.sol\":2034:2040  choice */\n      dup5\n        /* \"proposal.sol\":2034:2045  choice == 1 */\n      0xff\n      and\n      sub\n        /* \"proposal.sol\":2030:2422  if (choice == 1) {... */\n      tag_74\n      jumpi\n        /* \"proposal.sol\":2082:2083  1 */\n      0x01\n        /* \"proposal.sol\":2062:2070  proposal */\n      dup3\n        /* \"proposal.sol\":2062:2078  proposal.approve */\n      0x01\n      add\n      0x00\n        /* \"proposal.sol\":2062:2083  proposal.approve += 1 */\n      dup3\n      dup3\n      sload\n      tag_75\n      swap2\n      swap1\n      tag_55\n      jump\t// in\n    tag_75:\n      swap3\n      pop\n      pop\n      dup2\n      swap1\n      sstore\n      pop\n        /* \"proposal.sol\":2123:2146  calculateCurrentState() */\n      tag_76\n        /* \"proposal.sol\":2123:2144  calculateCurrentState */\n      tag_77\n        /* \"proposal.sol\":2123:2146  calculateCurrentState() */\n      jump\t// in\n    tag_76:\n        /* \"proposal.sol\":2098:2106  proposal */\n      dup3\n        /* \"proposal.sol\":2098:2120  proposal.current_state */\n      0x05\n      add\n      0x00\n        /* \"proposal.sol\":2098:2146  proposal.current_state = calculateCurrentState() */\n      0x0100\n      exp\n      dup2\n      sload\n      dup2\n      0xff\n      mul\n      not\n      and\n      swap1\n      dup4\n      iszero\n      iszero\n      mul\n      or\n      swap1\n      sstore\n      pop\n        /* \"proposal.sol\":2030:2422  if (choice == 1) {... */\n      jump(tag_78)\n    tag_74:\n        /* \"proposal.sol\":2178:2179  2 */\n      0x02\n        /* \"proposal.sol\":2168:2174  choice */\n      dup5\n        /* \"proposal.sol\":2168:2179  choice == 2 */\n      0xff\n      and\n      sub\n        /* \"proposal.sol\":2164:2422  if (choice == 2) {... */\n      tag_79\n      jumpi\n        /* \"proposal.sol\":2215:2216  1 */\n      0x01\n        /* \"proposal.sol\":2196:2204  proposal */\n      dup3\n        /* \"proposal.sol\":2196:2211  proposal.reject */\n      0x02\n      add\n      0x00\n        /* \"proposal.sol\":2196:2216  proposal.reject += 1 */\n      dup3\n      dup3\n      sload\n      tag_80\n      swap2\n      swap1\n      tag_55\n      jump\t// in\n    tag_80:\n      swap3\n      pop\n      pop\n      dup2\n      swap1\n      sstore\n      pop\n        /* \"proposal.sol\":2256:2279  calculateCurrentState() */\n      tag_81\n        /* \"proposal.sol\":2256:2277  calculateCurrentState */\n      tag_77\n        /* \"proposal.sol\":2256:2279  calculateCurrentState() */\n      jump\t// in\n    tag_81:\n        /* \"proposal.sol\":2231:2239  proposal */\n      dup3\n        /* \"proposal.sol\":2231:2253  proposal.current_state */\n      0x05\n      add\n      0x00\n        /* \"proposal.sol\":2231:2279  proposal.current_state = calculateCurrentState() */\n      0x0100\n      exp\n      dup2\n      sload\n      dup2\n      0xff\n      mul\n      not\n      and\n      swap1\n      dup4\n      iszero\n      iszero\n      mul\n      or\n      swap1\n      sstore\n      pop\n        /* \"proposal.sol\":2164:2422  if (choice == 2) {... */\n      jump(tag_82)\n    tag_79:\n        /* \"proposal.sol\":2311:2312  0 */\n      0x00\n        /* \"proposal.sol\":2301:2307  choice */\n      dup5\n        /* \"proposal.sol\":2301:2312  choice == 0 */\n      0xff\n      and\n      sub\n        /* \"proposal.sol\":2297:2422  if (choice == 0) {... */\n      tag_83\n      jumpi\n        /* \"proposal.sol\":2346:2347  1 */\n      0x01\n        /* \"proposal.sol\":2329:2337  proposal */\n      dup3\n        /* \"proposal.sol\":2329:2342  proposal.pass */\n      0x03\n      add\n      0x00\n        /* \"proposal.sol\":2329:2347  proposal.pass += 1 */\n      dup3\n      dup3\n      sload\n      tag_84\n      swap2\n      swap1\n      tag_55\n      jump\t// in\n    tag_84:\n      swap3\n      pop\n      pop\n      dup2\n      swap1\n      sstore\n      pop\n        /* \"proposal.sol\":2387:2410  calculateCurrentState() */\n      tag_85\n        /* \"proposal.sol\":2387:2408  calculateCurrentState */\n      tag_77\n        /* \"proposal.sol\":2387:2410  calculateCurrentState() */\n      jump\t// in\n    tag_85:\n        /* \"proposal.sol\":2362:2370  proposal */\n      dup3\n        /* \"proposal.sol\":2362:2384  proposal.current_state */\n      0x05\n      add\n      0x00\n        /* \"proposal.sol\":2362:2410  proposal.current_state = calculateCurrentState() */\n      0x0100\n      exp\n      dup2\n      sload\n      dup2\n      0xff\n      mul\n      not\n      and\n      swap1\n      dup4\n      iszero\n      iszero\n      mul\n      or\n      swap1\n      sstore\n      pop\n        /* \"proposal.sol\":2297:2422  if (choice == 0) {... */\n    tag_83:\n        /* \"proposal.sol\":2164:2422  if (choice == 2) {... */\n    tag_82:\n        /* \"proposal.sol\":2030:2422  if (choice == 1) {... */\n    tag_78:\n        /* \"proposal.sol\":2482:2483  1 */\n      0x01\n        /* \"proposal.sol\":2468:2478  total_vote */\n      dup2\n        /* \"proposal.sol\":2439:2447  proposal */\n      dup4\n        /* \"proposal.sol\":2439:2465  proposal.total_vote_to_end */\n      0x04\n      add\n      sload\n        /* \"proposal.sol\":2439:2478  proposal.total_vote_to_end - total_vote */\n      tag_86\n      swap2\n      swap1\n      tag_87\n      jump\t// in\n    tag_86:\n        /* \"proposal.sol\":2439:2483  proposal.total_vote_to_end - total_vote == 1 */\n      eq\n        /* \"proposal.sol\":2438:2531  (proposal.total_vote_to_end - total_vote == 1) && (choice == 1 || choice == 2 || choice == 0) */\n      dup1\n      iszero\n      tag_88\n      jumpi\n      pop\n        /* \"proposal.sol\":2499:2500  1 */\n      0x01\n        /* \"proposal.sol\":2489:2495  choice */\n      dup5\n        /* \"proposal.sol\":2489:2500  choice == 1 */\n      0xff\n      and\n      eq\n        /* \"proposal.sol\":2489:2515  choice == 1 || choice == 2 */\n      dup1\n      tag_89\n      jumpi\n      pop\n        /* \"proposal.sol\":2514:2515  2 */\n      0x02\n        /* \"proposal.sol\":2504:2510  choice */\n      dup5\n        /* \"proposal.sol\":2504:2515  choice == 2 */\n      0xff\n      and\n      eq\n        /* \"proposal.sol\":2489:2515  choice == 1 || choice == 2 */\n    tag_89:\n        /* \"proposal.sol\":2489:2530  choice == 1 || choice == 2 || choice == 0 */\n      dup1\n      tag_90\n      jumpi\n      pop\n        /* \"proposal.sol\":2529:2530  0 */\n      0x00\n        /* \"proposal.sol\":2519:2525  choice */\n      dup5\n        /* \"proposal.sol\":2519:2530  choice == 0 */\n      0xff\n      and\n      eq\n        /* \"proposal.sol\":2489:2530  choice == 1 || choice == 2 || choice == 0 */\n    tag_90:\n        /* \"proposal.sol\":2438:2531  (proposal.total_vote_to_end - total_vote == 1) && (choice == 1 || choice == 2 || choice == 0) */\n    tag_88:\n        /* \"proposal.sol\":2434:2626  if ((proposal.total_vote_to_end - total_vote == 1) && (choice == 1 || choice == 2 || choice == 0)) {... */\n      iszero\n      tag_91\n      jumpi\n        /* \"proposal.sol\":2569:2574  false */\n      0x00\n        /* \"proposal.sol\":2548:2556  proposal */\n      dup3\n        /* \"proposal.sol\":2548:2566  proposal.is_active */\n      0x05\n      add\n      0x01\n        /* \"proposal.sol\":2548:2574  proposal.is_active = false */\n      0x0100\n      exp\n      dup2\n      sload\n      dup2\n      0xff\n      mul\n      not\n      and\n      swap1\n      dup4\n      iszero\n      iszero\n      mul\n      or\n      swap1\n      sstore\n      pop\n        /* \"proposal.sol\":2589:2614  voted_addresses = [owner] */\n      mload(0x40)\n      dup1\n      0x20\n      add\n      0x40\n      mstore\n      dup1\n        /* \"proposal.sol\":2608:2613  owner */\n      0x00\n      dup1\n      sload\n      swap1\n      0x0100\n      exp\n      swap1\n      div\n      0xffffffffffffffffffffffffffffffffffffffff\n      and\n        /* \"proposal.sol\":2589:2614  voted_addresses = [owner] */\n      0xffffffffffffffffffffffffffffffffffffffff\n      and\n      0xffffffffffffffffffffffffffffffffffffffff\n      and\n      dup2\n      mstore\n      pop\n        /* \"proposal.sol\":2589:2604  voted_addresses */\n      0x03\n        /* \"proposal.sol\":2589:2614  voted_addresses = [owner] */\n      swap1\n      0x01\n      tag_92\n      swap3\n      swap2\n      swap1\n      tag_93\n      jump\t// in\n    tag_92:\n      pop\n        /* \"proposal.sol\":2434:2626  if ((proposal.total_vote_to_end - total_vote == 1) && (choice == 1 || choice == 2 || choice == 0)) {... */\n    tag_91:\n        /* \"proposal.sol\":1826:2633  {... */\n      pop\n      pop\n        /* \"proposal.sol\":1195:1196  _ */\n      pop\n        /* \"proposal.sol\":1762:2633  function vote(uint8 choice) external active newVoter(msg.sender){... */\n      pop\n      jump\t// out\n        /* \"proposal.sol\":3676:3802  function getProposal(uint256 number) external view returns(Proposal memory) {... */\n    tag_32:\n        /* \"proposal.sol\":3735:3750  Proposal memory */\n      tag_94\n      tag_43\n      jump\t// in\n    tag_94:\n        /* \"proposal.sol\":3770:3786  proposal_history */\n      0x02\n        /* \"proposal.sol\":3770:3794  proposal_history[number] */\n      0x00\n        /* \"proposal.sol\":3787:3793  number */\n      dup4\n        /* \"proposal.sol\":3770:3794  proposal_history[number] */\n      dup2\n      mstore\n      0x20\n      add\n      swap1\n      dup2\n      mstore\n      0x20\n      add\n      0x00\n      keccak256\n        /* \"proposal.sol\":3763:3794  return proposal_history[number] */\n      mload(0x40)\n      dup1\n      0xe0\n      add\n      0x40\n      mstore\n      swap1\n      dup2\n      0x00\n      dup3\n      add\n      dup1\n      sload\n      tag_96\n      swap1\n      tag_46\n      jump\t// in\n    tag_96:\n      dup1\n      0x1f\n      add\n      0x20\n      dup1\n      swap2\n      div\n      mul\n      0x20\n      add\n      mload(0x40)\n      swap1\n      dup2\n      add\n      0x40\n      mstore\n      dup1\n      swap3\n      swap2\n      swap1\n      dup2\n      dup2\n      mstore\n      0x20\n      add\n      dup3\n      dup1\n      sload\n      tag_97\n      swap1\n      tag_46\n      jump\t// in\n    tag_97:\n      dup1\n      iszero\n      tag_98\n      jumpi\n      dup1\n      0x1f\n      lt\n      tag_99\n      jumpi\n      0x0100\n      dup1\n      dup4\n      sload\n      div\n      mul\n      dup4\n      mstore\n      swap2\n      0x20\n      add\n      swap2\n      jump(tag_98)\n    tag_99:\n      dup3\n      add\n      swap2\n      swap1\n      0x00\n      mstore\n      keccak256(0x00, 0x20)\n      swap1\n    tag_100:\n      dup2\n      sload\n      dup2\n      mstore\n      swap1\n      0x01\n      add\n      swap1\n      0x20\n      add\n      dup1\n      dup4\n      gt\n      tag_100\n      jumpi\n      dup3\n      swap1\n      sub\n      0x1f\n      and\n      dup3\n      add\n      swap2\n    tag_98:\n      pop\n      pop\n      pop\n      pop\n      pop\n      dup2\n      mstore\n      0x20\n      add\n      0x01\n      dup3\n      add\n      sload\n      dup2\n      mstore\n      0x20\n      add\n      0x02\n      dup3\n      add\n      sload\n      dup2\n      mstore\n      0x20\n      add\n      0x03\n      dup3\n      add\n      sload\n      dup2\n      mstore\n      0x20\n      add\n      0x04\n      dup3\n      add\n      sload\n      dup2\n      mstore\n      0x20\n      add\n      0x05\n      dup3\n      add\n      0x00\n      swap1\n      sload\n      swap1\n      0x0100\n      exp\n      swap1\n      div\n      0xff\n      and\n      iszero\n      iszero\n      iszero\n      iszero\n      dup2\n      mstore\n      0x20\n      add\n      0x05\n      dup3\n      add\n      0x01\n      swap1\n      sload\n      swap1\n      0x0100\n      exp\n      swap1\n      div\n      0xff\n      and\n      iszero\n      iszero\n      iszero\n      iszero\n      dup2\n      mstore\n      pop\n      pop\n      swap1\n      pop\n        /* \"proposal.sol\":3676:3802  function getProposal(uint256 number) external view returns(Proposal memory) {... */\n      swap2\n      swap1\n      pop\n      jump\t// out\n        /* \"proposal.sol\":3275:3536  function isVoted(address _address) public view returns (bool) {... */\n    tag_36:\n        /* \"proposal.sol\":3331:3335  bool */\n      0x00\n        /* \"proposal.sol\":3353:3359  uint i */\n      dup1\n        /* \"proposal.sol\":3362:3363  0 */\n      0x00\n        /* \"proposal.sol\":3353:3363  uint i = 0 */\n      swap1\n      pop\n        /* \"proposal.sol\":3348:3506  for (uint i = 0; i < voted_addresses.length; i++) {... */\n    tag_102:\n        /* \"proposal.sol\":3369:3384  voted_addresses */\n      0x03\n        /* \"proposal.sol\":3369:3391  voted_addresses.length */\n      dup1\n      sload\n      swap1\n      pop\n        /* \"proposal.sol\":3365:3366  i */\n      dup2\n        /* \"proposal.sol\":3365:3391  i < voted_addresses.length */\n      lt\n        /* \"proposal.sol\":3348:3506  for (uint i = 0; i < voted_addresses.length; i++) {... */\n      iszero\n      tag_103\n      jumpi\n        /* \"proposal.sol\":3439:3447  _address */\n      dup3\n        /* \"proposal.sol\":3417:3447  voted_addresses[i] == _address */\n      0xffffffffffffffffffffffffffffffffffffffff\n      and\n        /* \"proposal.sol\":3417:3432  voted_addresses */\n      0x03\n        /* \"proposal.sol\":3433:3434  i */\n      dup3\n        /* \"proposal.sol\":3417:3435  voted_addresses[i] */\n      dup2\n      sload\n      dup2\n      lt\n      tag_105\n      jumpi\n      tag_106\n      tag_107\n      jump\t// in\n    tag_106:\n    tag_105:\n      swap1\n      0x00\n      mstore\n      keccak256(0x00, 0x20)\n      add\n      0x00\n      swap1\n      sload\n      swap1\n      0x0100\n      exp\n      swap1\n      div\n      0xffffffffffffffffffffffffffffffffffffffff\n      and\n        /* \"proposal.sol\":3417:3447  voted_addresses[i] == _address */\n      0xffffffffffffffffffffffffffffffffffffffff\n      and\n      sub\n        /* \"proposal.sol\":3413:3495  if (voted_addresses[i] == _address) {... */\n      tag_109\n      jumpi\n        /* \"proposal.sol\":3475:3479  true */\n      0x01\n        /* \"proposal.sol\":3468:3479  return true */\n      swap2\n      pop\n      pop\n      jump(tag_101)\n        /* \"proposal.sol\":3413:3495  if (voted_addresses[i] == _address) {... */\n    tag_109:\n        /* \"proposal.sol\":3393:3396  i++ */\n      dup1\n      dup1\n      0x01\n      add\n      swap2\n      pop\n      pop\n        /* \"proposal.sol\":3348:3506  for (uint i = 0; i < voted_addresses.length; i++) {... */\n      jump(tag_102)\n    tag_103:\n      pop\n        /* \"proposal.sol\":3523:3528  false */\n      0x00\n        /* \"proposal.sol\":3516:3528  return false */\n      swap1\n      pop\n        /* \"proposal.sol\":3275:3536  function isVoted(address _address) public view returns (bool) {... */\n    tag_101:\n      swap2\n      swap1\n      pop\n      jump\t// out\n        /* \"proposal.sol\":2643:3143  function calculateCurrentState() private view returns(bool) {... */\n    tag_77:\n        /* \"proposal.sol\":2697:2701  bool */\n      0x00\n        /* \"proposal.sol\":2714:2739  Proposal storage proposal */\n      dup1\n        /* \"proposal.sol\":2742:2758  proposal_history */\n      0x02\n        /* \"proposal.sol\":2742:2767  proposal_history[counter] */\n      0x00\n        /* \"proposal.sol\":2759:2766  counter */\n      sload(0x01)\n        /* \"proposal.sol\":2742:2767  proposal_history[counter] */\n      dup2\n      mstore\n      0x20\n      add\n      swap1\n      dup2\n      mstore\n      0x20\n      add\n      0x00\n      keccak256\n        /* \"proposal.sol\":2714:2767  Proposal storage proposal = proposal_history[counter] */\n      swap1\n      pop\n        /* \"proposal.sol\":2780:2795  uint256 approve */\n      0x00\n        /* \"proposal.sol\":2798:2806  proposal */\n      dup2\n        /* \"proposal.sol\":2798:2814  proposal.approve */\n      0x01\n      add\n      sload\n        /* \"proposal.sol\":2780:2814  uint256 approve = proposal.approve */\n      swap1\n      pop\n        /* \"proposal.sol\":2825:2839  uint256 reject */\n      0x00\n        /* \"proposal.sol\":2842:2850  proposal */\n      dup3\n        /* \"proposal.sol\":2842:2857  proposal.reject */\n      0x02\n      add\n      sload\n        /* \"proposal.sol\":2825:2857  uint256 reject = proposal.reject */\n      swap1\n      pop\n        /* \"proposal.sol\":2868:2880  uint256 pass */\n      0x00\n        /* \"proposal.sol\":2883:2891  proposal */\n      dup4\n        /* \"proposal.sol\":2883:2896  proposal.pass */\n      0x03\n      add\n      sload\n        /* \"proposal.sol\":2868:2896  uint256 pass = proposal.pass */\n      swap1\n      pop\n        /* \"proposal.sol\":2945:2946  1 */\n      0x01\n        /* \"proposal.sol\":2940:2941  2 */\n      0x02\n        /* \"proposal.sol\":2925:2933  proposal */\n      dup6\n        /* \"proposal.sol\":2925:2938  proposal.pass */\n      0x03\n      add\n      sload\n        /* \"proposal.sol\":2925:2941  proposal.pass %2 */\n      tag_111\n      swap2\n      swap1\n      tag_112\n      jump\t// in\n    tag_111:\n        /* \"proposal.sol\":2925:2946  proposal.pass %2 == 1 */\n      sub\n        /* \"proposal.sol\":2921:2984  if (proposal.pass %2 == 1) {... */\n      tag_113\n      jumpi\n        /* \"proposal.sol\":2971:2972  1 */\n      0x01\n        /* \"proposal.sol\":2963:2972  pass += 1 */\n      dup2\n      tag_114\n      swap2\n      swap1\n      tag_55\n      jump\t// in\n    tag_114:\n      swap1\n      pop\n        /* \"proposal.sol\":2921:2984  if (proposal.pass %2 == 1) {... */\n    tag_113:\n        /* \"proposal.sol\":3010:3011  2 */\n      0x02\n        /* \"proposal.sol\":3003:3007  pass */\n      dup2\n        /* \"proposal.sol\":3003:3011  pass / 2 */\n      tag_115\n      swap2\n      swap1\n      tag_116\n      jump\t// in\n    tag_115:\n        /* \"proposal.sol\":2996:3011  pass = pass / 2 */\n      swap1\n      pop\n        /* \"proposal.sol\":3047:3051  pass */\n      dup1\n        /* \"proposal.sol\":3038:3044  reject */\n      dup3\n        /* \"proposal.sol\":3038:3051  reject + pass */\n      tag_117\n      swap2\n      swap1\n      tag_55\n      jump\t// in\n    tag_117:\n        /* \"proposal.sol\":3028:3035  approve */\n      dup4\n        /* \"proposal.sol\":3028:3051  approve > reject + pass */\n      gt\n        /* \"proposal.sol\":3024:3136  if (approve > reject + pass) {... */\n      iszero\n      tag_118\n      jumpi\n        /* \"proposal.sol\":3075:3079  true */\n      0x01\n        /* \"proposal.sol\":3068:3079  return true */\n      swap5\n      pop\n      pop\n      pop\n      pop\n      pop\n      jump(tag_110)\n        /* \"proposal.sol\":3024:3136  if (approve > reject + pass) {... */\n    tag_118:\n        /* \"proposal.sol\":3119:3124  false */\n      0x00\n        /* \"proposal.sol\":3112:3124  return false */\n      swap5\n      pop\n      pop\n      pop\n      pop\n      pop\n        /* \"proposal.sol\":2643:3143  function calculateCurrentState() private view returns(bool) {... */\n    tag_110:\n      swap1\n      jump\t// out\n    tag_43:\n      mload(0x40)\n      dup1\n      0xe0\n      add\n      0x40\n      mstore\n      dup1\n      0x60\n      dup2\n      mstore\n      0x20\n      add\n      0x00\n      dup2\n      mstore\n      0x20\n      add\n      0x00\n      dup2\n      mstore\n      0x20\n      add\n      0x00\n      dup2\n      mstore\n      0x20\n      add\n      0x00\n      dup2\n      mstore\n      0x20\n      add\n      iszero(iszero(0x00))\n      dup2\n      mstore\n      0x20\n      add\n      iszero(iszero(0x00))\n      dup2\n      mstore\n      pop\n      swap1\n      jump\t// out\n    tag_93:\n      dup3\n      dup1\n      sload\n      dup3\n      dup3\n      sstore\n      swap1\n      0x00\n      mstore\n      keccak256(0x00, 0x20)\n      swap1\n      dup2\n      add\n      swap3\n      dup3\n      iszero\n      tag_120\n      jumpi\n      swap2\n      0x20\n      mul\n      dup3\n      add\n    tag_121:\n      dup3\n      dup2\n      gt\n      iszero\n      tag_122\n      jumpi\n      dup3\n      mload\n      dup3\n      exp(0x0100, 0x00)\n      dup2\n      sload\n      dup2\n      0xffffffffffffffffffffffffffffffffffffffff\n      mul\n      not\n      and\n      swap1\n      dup4\n      0xffffffffffffffffffffffffffffffffffffffff\n      and\n      mul\n      or\n      swap1\n      sstore\n      pop\n      swap2\n      0x20\n      add\n      swap2\n      swap1\n      0x01\n      add\n      swap1\n      jump(tag_121)\n    tag_122:\n    tag_120:\n      pop\n      swap1\n      pop\n      tag_123\n      swap2\n      swap1\n      tag_124\n      jump\t// in\n    tag_123:\n      pop\n      swap1\n      jump\t// out\n    tag_124:\n    tag_125:\n      dup1\n      dup3\n      gt\n      iszero\n      tag_126\n      jumpi\n      0x00\n      dup2\n      0x00\n      swap1\n      sstore\n      pop\n      0x01\n      add\n      jump(tag_125)\n    tag_126:\n      pop\n      swap1\n      jump\t// out\n        /* \"#utility.yul\":88:205   */\n    tag_128:\n        /* \"#utility.yul\":197:198   */\n      0x00\n        /* \"#utility.yul\":194:195   */\n      dup1\n        /* \"#utility.yul\":187:199   */\n      revert\n        /* \"#utility.yul\":211:328   */\n    tag_129:\n        /* \"#utility.yul\":320:321   */\n      0x00\n        /* \"#utility.yul\":317:318   */\n      dup1\n        /* \"#utility.yul\":310:322   */\n      revert\n        /* \"#utility.yul\":334:460   */\n    tag_130:\n        /* \"#utility.yul\":371:378   */\n      0x00\n        /* \"#utility.yul\":411:453   */\n      0xffffffffffffffffffffffffffffffffffffffff\n        /* \"#utility.yul\":404:409   */\n      dup3\n        /* \"#utility.yul\":400:454   */\n      and\n        /* \"#utility.yul\":389:454   */\n      swap1\n      pop\n        /* \"#utility.yul\":334:460   */\n      swap2\n      swap1\n      pop\n      jump\t// out\n        /* \"#utility.yul\":466:562   */\n    tag_131:\n        /* \"#utility.yul\":503:510   */\n      0x00\n        /* \"#utility.yul\":532:556   */\n      tag_182\n        /* \"#utility.yul\":550:555   */\n      dup3\n        /* \"#utility.yul\":532:556   */\n      tag_130\n      jump\t// in\n    tag_182:\n        /* \"#utility.yul\":521:556   */\n      swap1\n      pop\n        /* \"#utility.yul\":466:562   */\n      swap2\n      swap1\n      pop\n      jump\t// out\n        /* \"#utility.yul\":568:690   */\n    tag_132:\n        /* \"#utility.yul\":641:665   */\n      tag_184\n        /* \"#utility.yul\":659:664   */\n      dup2\n        /* \"#utility.yul\":641:665   */\n      tag_131\n      jump\t// in\n    tag_184:\n        /* \"#utility.yul\":634:639   */\n      dup2\n        /* \"#utility.yul\":631:666   */\n      eq\n        /* \"#utility.yul\":621:684   */\n      tag_185\n      jumpi\n        /* \"#utility.yul\":680:681   */\n      0x00\n        /* \"#utility.yul\":677:678   */\n      dup1\n        /* \"#utility.yul\":670:682   */\n      revert\n        /* \"#utility.yul\":621:684   */\n    tag_185:\n        /* \"#utility.yul\":568:690   */\n      pop\n      jump\t// out\n        /* \"#utility.yul\":696:835   */\n    tag_133:\n        /* \"#utility.yul\":742:747   */\n      0x00\n        /* \"#utility.yul\":780:786   */\n      dup2\n        /* \"#utility.yul\":767:787   */\n      calldataload\n        /* \"#utility.yul\":758:787   */\n      swap1\n      pop\n        /* \"#utility.yul\":796:829   */\n      tag_187\n        /* \"#utility.yul\":823:828   */\n      dup2\n        /* \"#utility.yul\":796:829   */\n      tag_132\n      jump\t// in\n    tag_187:\n        /* \"#utility.yul\":696:835   */\n      swap3\n      swap2\n      pop\n      pop\n      jump\t// out\n        /* \"#utility.yul\":841:1170   */\n    tag_13:\n        /* \"#utility.yul\":900:906   */\n      0x00\n        /* \"#utility.yul\":949:951   */\n      0x20\n        /* \"#utility.yul\":937:946   */\n      dup3\n        /* \"#utility.yul\":928:935   */\n      dup5\n        /* \"#utility.yul\":924:947   */\n      sub\n        /* \"#utility.yul\":920:952   */\n      slt\n        /* \"#utility.yul\":917:1036   */\n      iszero\n      tag_189\n      jumpi\n        /* \"#utility.yul\":955:1034   */\n      tag_190\n      tag_128\n      jump\t// in\n    tag_190:\n        /* \"#utility.yul\":917:1036   */\n    tag_189:\n        /* \"#utility.yul\":1075:1076   */\n      0x00\n        /* \"#utility.yul\":1100:1153   */\n      tag_191\n        /* \"#utility.yul\":1145:1152   */\n      dup5\n        /* \"#utility.yul\":1136:1142   */\n      dup3\n        /* \"#utility.yul\":1125:1134   */\n      dup6\n        /* \"#utility.yul\":1121:1143   */\n      add\n        /* \"#utility.yul\":1100:1153   */\n      tag_133\n      jump\t// in\n    tag_191:\n        /* \"#utility.yul\":1090:1153   */\n      swap2\n      pop\n        /* \"#utility.yul\":1046:1163   */\n      pop\n        /* \"#utility.yul\":841:1170   */\n      swap3\n      swap2\n      pop\n      pop\n      jump\t// out\n        /* \"#utility.yul\":1176:1275   */\n    tag_134:\n        /* \"#utility.yul\":1228:1234   */\n      0x00\n        /* \"#utility.yul\":1262:1267   */\n      dup2\n        /* \"#utility.yul\":1256:1268   */\n      mload\n        /* \"#utility.yul\":1246:1268   */\n      swap1\n      pop\n        /* \"#utility.yul\":1176:1275   */\n      swap2\n      swap1\n      pop\n      jump\t// out\n        /* \"#utility.yul\":1281:1440   */\n    tag_135:\n        /* \"#utility.yul\":1355:1366   */\n      0x00\n        /* \"#utility.yul\":1389:1395   */\n      dup3\n        /* \"#utility.yul\":1384:1387   */\n      dup3\n        /* \"#utility.yul\":1377:1396   */\n      mstore\n        /* \"#utility.yul\":1429:1433   */\n      0x20\n        /* \"#utility.yul\":1424:1427   */\n      dup3\n        /* \"#utility.yul\":1420:1434   */\n      add\n        /* \"#utility.yul\":1405:1434   */\n      swap1\n      pop\n        /* \"#utility.yul\":1281:1440   */\n      swap3\n      swap2\n      pop\n      pop\n      jump\t// out\n        /* \"#utility.yul\":1446:1585   */\n    tag_136:\n        /* \"#utility.yul\":1535:1541   */\n      dup3\n        /* \"#utility.yul\":1530:1533   */\n      dup2\n        /* \"#utility.yul\":1525:1528   */\n      dup4\n        /* \"#utility.yul\":1519:1542   */\n      mcopy\n        /* \"#utility.yul\":1576:1577   */\n      0x00\n        /* \"#utility.yul\":1567:1573   */\n      dup4\n        /* \"#utility.yul\":1562:1565   */\n      dup4\n        /* \"#utility.yul\":1558:1574   */\n      add\n        /* \"#utility.yul\":1551:1578   */\n      mstore\n        /* \"#utility.yul\":1446:1585   */\n      pop\n      pop\n      pop\n      jump\t// out\n        /* \"#utility.yul\":1591:1693   */\n    tag_137:\n        /* \"#utility.yul\":1632:1638   */\n      0x00\n        /* \"#utility.yul\":1683:1685   */\n      0x1f\n        /* \"#utility.yul\":1679:1686   */\n      not\n        /* \"#utility.yul\":1674:1676   */\n      0x1f\n        /* \"#utility.yul\":1667:1672   */\n      dup4\n        /* \"#utility.yul\":1663:1677   */\n      add\n        /* \"#utility.yul\":1659:1687   */\n      and\n        /* \"#utility.yul\":1649:1687   */\n      swap1\n      pop\n        /* \"#utility.yul\":1591:1693   */\n      swap2\n      swap1\n      pop\n      jump\t// out\n        /* \"#utility.yul\":1699:2056   */\n    tag_138:\n        /* \"#utility.yul\":1777:1780   */\n      0x00\n        /* \"#utility.yul\":1805:1844   */\n      tag_197\n        /* \"#utility.yul\":1838:1843   */\n      dup3\n        /* \"#utility.yul\":1805:1844   */\n      tag_134\n      jump\t// in\n    tag_197:\n        /* \"#utility.yul\":1860:1921   */\n      tag_198\n        /* \"#utility.yul\":1914:1920   */\n      dup2\n        /* \"#utility.yul\":1909:1912   */\n      dup6\n        /* \"#utility.yul\":1860:1921   */\n      tag_135\n      jump\t// in\n    tag_198:\n        /* \"#utility.yul\":1853:1921   */\n      swap4\n      pop\n        /* \"#utility.yul\":1930:1995   */\n      tag_199\n        /* \"#utility.yul\":1988:1994   */\n      dup2\n        /* \"#utility.yul\":1983:1986   */\n      dup6\n        /* \"#utility.yul\":1976:1980   */\n      0x20\n        /* \"#utility.yul\":1969:1974   */\n      dup7\n        /* \"#utility.yul\":1965:1981   */\n      add\n        /* \"#utility.yul\":1930:1995   */\n      tag_136\n      jump\t// in\n    tag_199:\n        /* \"#utility.yul\":2020:2049   */\n      tag_200\n        /* \"#utility.yul\":2042:2048   */\n      dup2\n        /* \"#utility.yul\":2020:2049   */\n      tag_137\n      jump\t// in\n    tag_200:\n        /* \"#utility.yul\":2015:2018   */\n      dup5\n        /* \"#utility.yul\":2011:2050   */\n      add\n        /* \"#utility.yul\":2004:2050   */\n      swap2\n      pop\n        /* \"#utility.yul\":1781:2056   */\n      pop\n        /* \"#utility.yul\":1699:2056   */\n      swap3\n      swap2\n      pop\n      pop\n      jump\t// out\n        /* \"#utility.yul\":2062:2139   */\n    tag_139:\n        /* \"#utility.yul\":2099:2106   */\n      0x00\n        /* \"#utility.yul\":2128:2133   */\n      dup2\n        /* \"#utility.yul\":2117:2133   */\n      swap1\n      pop\n        /* \"#utility.yul\":2062:2139   */\n      swap2\n      swap1\n      pop\n      jump\t// out\n        /* \"#utility.yul\":2145:2253   */\n    tag_140:\n        /* \"#utility.yul\":2222:2246   */\n      tag_203\n        /* \"#utility.yul\":2240:2245   */\n      dup2\n        /* \"#utility.yul\":2222:2246   */\n      tag_139\n      jump\t// in\n    tag_203:\n        /* \"#utility.yul\":2217:2220   */\n      dup3\n        /* \"#utility.yul\":2210:2247   */\n      mstore\n        /* \"#utility.yul\":2145:2253   */\n      pop\n      pop\n      jump\t// out\n        /* \"#utility.yul\":2259:2349   */\n    tag_141:\n        /* \"#utility.yul\":2293:2300   */\n      0x00\n        /* \"#utility.yul\":2336:2341   */\n      dup2\n        /* \"#utility.yul\":2329:2342   */\n      iszero\n        /* \"#utility.yul\":2322:2343   */\n      iszero\n        /* \"#utility.yul\":2311:2343   */\n      swap1\n      pop\n        /* \"#utility.yul\":2259:2349   */\n      swap2\n      swap1\n      pop\n      jump\t// out\n        /* \"#utility.yul\":2355:2454   */\n    tag_142:\n        /* \"#utility.yul\":2426:2447   */\n      tag_206\n        /* \"#utility.yul\":2441:2446   */\n      dup2\n        /* \"#utility.yul\":2426:2447   */\n      tag_141\n      jump\t// in\n    tag_206:\n        /* \"#utility.yul\":2421:2424   */\n      dup3\n        /* \"#utility.yul\":2414:2448   */\n      mstore\n        /* \"#utility.yul\":2355:2454   */\n      pop\n      pop\n      jump\t// out\n        /* \"#utility.yul\":2536:4037   */\n    tag_143:\n        /* \"#utility.yul\":2653:2656   */\n      0x00\n        /* \"#utility.yul\":2689:2693   */\n      0xe0\n        /* \"#utility.yul\":2684:2687   */\n      dup4\n        /* \"#utility.yul\":2680:2694   */\n      add\n        /* \"#utility.yul\":2783:2787   */\n      0x00\n        /* \"#utility.yul\":2776:2781   */\n      dup4\n        /* \"#utility.yul\":2772:2788   */\n      add\n        /* \"#utility.yul\":2766:2789   */\n      mload\n        /* \"#utility.yul\":2836:2839   */\n      dup5\n        /* \"#utility.yul\":2830:2834   */\n      dup3\n        /* \"#utility.yul\":2826:2840   */\n      sub\n        /* \"#utility.yul\":2819:2823   */\n      0x00\n        /* \"#utility.yul\":2814:2817   */\n      dup7\n        /* \"#utility.yul\":2810:2824   */\n      add\n        /* \"#utility.yul\":2803:2841   */\n      mstore\n        /* \"#utility.yul\":2862:2935   */\n      tag_208\n        /* \"#utility.yul\":2930:2934   */\n      dup3\n        /* \"#utility.yul\":2916:2928   */\n      dup3\n        /* \"#utility.yul\":2862:2935   */\n      tag_138\n      jump\t// in\n    tag_208:\n        /* \"#utility.yul\":2854:2935   */\n      swap2\n      pop\n        /* \"#utility.yul\":2704:2946   */\n      pop\n        /* \"#utility.yul\":3031:3035   */\n      0x20\n        /* \"#utility.yul\":3024:3029   */\n      dup4\n        /* \"#utility.yul\":3020:3036   */\n      add\n        /* \"#utility.yul\":3014:3037   */\n      mload\n        /* \"#utility.yul\":3050:3113   */\n      tag_209\n        /* \"#utility.yul\":3107:3111   */\n      0x20\n        /* \"#utility.yul\":3102:3105   */\n      dup7\n        /* \"#utility.yul\":3098:3112   */\n      add\n        /* \"#utility.yul\":3084:3096   */\n      dup3\n        /* \"#utility.yul\":3050:3113   */\n      tag_140\n      jump\t// in\n    tag_209:\n        /* \"#utility.yul\":2956:3123   */\n      pop\n        /* \"#utility.yul\":3207:3211   */\n      0x40\n        /* \"#utility.yul\":3200:3205   */\n      dup4\n        /* \"#utility.yul\":3196:3212   */\n      add\n        /* \"#utility.yul\":3190:3213   */\n      mload\n        /* \"#utility.yul\":3226:3289   */\n      tag_210\n        /* \"#utility.yul\":3283:3287   */\n      0x40\n        /* \"#utility.yul\":3278:3281   */\n      dup7\n        /* \"#utility.yul\":3274:3288   */\n      add\n        /* \"#utility.yul\":3260:3272   */\n      dup3\n        /* \"#utility.yul\":3226:3289   */\n      tag_140\n      jump\t// in\n    tag_210:\n        /* \"#utility.yul\":3133:3299   */\n      pop\n        /* \"#utility.yul\":3381:3385   */\n      0x60\n        /* \"#utility.yul\":3374:3379   */\n      dup4\n        /* \"#utility.yul\":3370:3386   */\n      add\n        /* \"#utility.yul\":3364:3387   */\n      mload\n        /* \"#utility.yul\":3400:3463   */\n      tag_211\n        /* \"#utility.yul\":3457:3461   */\n      0x60\n        /* \"#utility.yul\":3452:3455   */\n      dup7\n        /* \"#utility.yul\":3448:3462   */\n      add\n        /* \"#utility.yul\":3434:3446   */\n      dup3\n        /* \"#utility.yul\":3400:3463   */\n      tag_140\n      jump\t// in\n    tag_211:\n        /* \"#utility.yul\":3309:3473   */\n      pop\n        /* \"#utility.yul\":3568:3572   */\n      0x80\n        /* \"#utility.yul\":3561:3566   */\n      dup4\n        /* \"#utility.yul\":3557:3573   */\n      add\n        /* \"#utility.yul\":3551:3574   */\n      mload\n        /* \"#utility.yul\":3587:3650   */\n      tag_212\n        /* \"#utility.yul\":3644:3648   */\n      0x80\n        /* \"#utility.yul\":3639:3642   */\n      dup7\n        /* \"#utility.yul\":3635:3649   */\n      add\n        /* \"#utility.yul\":3621:3633   */\n      dup3\n        /* \"#utility.yul\":3587:3650   */\n      tag_140\n      jump\t// in\n    tag_212:\n        /* \"#utility.yul\":3483:3660   */\n      pop\n        /* \"#utility.yul\":3751:3755   */\n      0xa0\n        /* \"#utility.yul\":3744:3749   */\n      dup4\n        /* \"#utility.yul\":3740:3756   */\n      add\n        /* \"#utility.yul\":3734:3757   */\n      mload\n        /* \"#utility.yul\":3770:3827   */\n      tag_213\n        /* \"#utility.yul\":3821:3825   */\n      0xa0\n        /* \"#utility.yul\":3816:3819   */\n      dup7\n        /* \"#utility.yul\":3812:3826   */\n      add\n        /* \"#utility.yul\":3798:3810   */\n      dup3\n        /* \"#utility.yul\":3770:3827   */\n      tag_142\n      jump\t// in\n    tag_213:\n        /* \"#utility.yul\":3670:3837   */\n      pop\n        /* \"#utility.yul\":3924:3928   */\n      0xc0\n        /* \"#utility.yul\":3917:3922   */\n      dup4\n        /* \"#utility.yul\":3913:3929   */\n      add\n        /* \"#utility.yul\":3907:3930   */\n      mload\n        /* \"#utility.yul\":3943:4000   */\n      tag_214\n        /* \"#utility.yul\":3994:3998   */\n      0xc0\n        /* \"#utility.yul\":3989:3992   */\n      dup7\n        /* \"#utility.yul\":3985:3999   */\n      add\n        /* \"#utility.yul\":3971:3983   */\n      dup3\n        /* \"#utility.yul\":3943:4000   */\n      tag_142\n      jump\t// in\n    tag_214:\n        /* \"#utility.yul\":3847:4010   */\n      pop\n        /* \"#utility.yul\":4027:4031   */\n      dup1\n        /* \"#utility.yul\":4020:4031   */\n      swap2\n      pop\n        /* \"#utility.yul\":2658:4037   */\n      pop\n        /* \"#utility.yul\":2536:4037   */\n      swap3\n      swap2\n      pop\n      pop\n      jump\t// out\n        /* \"#utility.yul\":4043:4412   */\n    tag_18:\n        /* \"#utility.yul\":4184:4188   */\n      0x00\n        /* \"#utility.yul\":4222:4224   */\n      0x20\n        /* \"#utility.yul\":4211:4220   */\n      dup3\n        /* \"#utility.yul\":4207:4225   */\n      add\n        /* \"#utility.yul\":4199:4225   */\n      swap1\n      pop\n        /* \"#utility.yul\":4271:4280   */\n      dup2\n        /* \"#utility.yul\":4265:4269   */\n      dup2\n        /* \"#utility.yul\":4261:4281   */\n      sub\n        /* \"#utility.yul\":4257:4258   */\n      0x00\n        /* \"#utility.yul\":4246:4255   */\n      dup4\n        /* \"#utility.yul\":4242:4259   */\n      add\n        /* \"#utility.yul\":4235:4282   */\n      mstore\n        /* \"#utility.yul\":4299:4405   */\n      tag_216\n        /* \"#utility.yul\":4400:4404   */\n      dup2\n        /* \"#utility.yul\":4391:4397   */\n      dup5\n        /* \"#utility.yul\":4299:4405   */\n      tag_143\n      jump\t// in\n    tag_216:\n        /* \"#utility.yul\":4291:4405   */\n      swap1\n      pop\n        /* \"#utility.yul\":4043:4412   */\n      swap3\n      swap2\n      pop\n      pop\n      jump\t// out\n        /* \"#utility.yul\":4418:4535   */\n    tag_144:\n        /* \"#utility.yul\":4527:4528   */\n      0x00\n        /* \"#utility.yul\":4524:4525   */\n      dup1\n        /* \"#utility.yul\":4517:4529   */\n      revert\n        /* \"#utility.yul\":4541:4658   */\n    tag_145:\n        /* \"#utility.yul\":4650:4651   */\n      0x00\n        /* \"#utility.yul\":4647:4648   */\n      dup1\n        /* \"#utility.yul\":4640:4652   */\n      revert\n        /* \"#utility.yul\":4664:4781   */\n    tag_146:\n        /* \"#utility.yul\":4773:4774   */\n      0x00\n        /* \"#utility.yul\":4770:4771   */\n      dup1\n        /* \"#utility.yul\":4763:4775   */\n      revert\n        /* \"#utility.yul\":4801:5354   */\n    tag_147:\n        /* \"#utility.yul\":4859:4867   */\n      0x00\n        /* \"#utility.yul\":4869:4875   */\n      dup1\n        /* \"#utility.yul\":4919:4922   */\n      dup4\n        /* \"#utility.yul\":4912:4916   */\n      0x1f\n        /* \"#utility.yul\":4904:4910   */\n      dup5\n        /* \"#utility.yul\":4900:4917   */\n      add\n        /* \"#utility.yul\":4896:4923   */\n      slt\n        /* \"#utility.yul\":4886:5008   */\n      tag_221\n      jumpi\n        /* \"#utility.yul\":4927:5006   */\n      tag_222\n      tag_144\n      jump\t// in\n    tag_222:\n        /* \"#utility.yul\":4886:5008   */\n    tag_221:\n        /* \"#utility.yul\":5040:5046   */\n      dup3\n        /* \"#utility.yul\":5027:5047   */\n      calldataload\n        /* \"#utility.yul\":5017:5047   */\n      swap1\n      pop\n        /* \"#utility.yul\":5070:5088   */\n      0xffffffffffffffff\n        /* \"#utility.yul\":5062:5068   */\n      dup2\n        /* \"#utility.yul\":5059:5089   */\n      gt\n        /* \"#utility.yul\":5056:5173   */\n      iszero\n      tag_223\n      jumpi\n        /* \"#utility.yul\":5092:5171   */\n      tag_224\n      tag_145\n      jump\t// in\n    tag_224:\n        /* \"#utility.yul\":5056:5173   */\n    tag_223:\n        /* \"#utility.yul\":5206:5210   */\n      0x20\n        /* \"#utility.yul\":5198:5204   */\n      dup4\n        /* \"#utility.yul\":5194:5211   */\n      add\n        /* \"#utility.yul\":5182:5211   */\n      swap2\n      pop\n        /* \"#utility.yul\":5260:5263   */\n      dup4\n        /* \"#utility.yul\":5252:5256   */\n      0x01\n        /* \"#utility.yul\":5244:5250   */\n      dup3\n        /* \"#utility.yul\":5240:5257   */\n      mul\n        /* \"#utility.yul\":5230:5238   */\n      dup4\n        /* \"#utility.yul\":5226:5258   */\n      add\n        /* \"#utility.yul\":5223:5264   */\n      gt\n        /* \"#utility.yul\":5220:5348   */\n      iszero\n      tag_225\n      jumpi\n        /* \"#utility.yul\":5267:5346   */\n      tag_226\n      tag_146\n      jump\t// in\n    tag_226:\n        /* \"#utility.yul\":5220:5348   */\n    tag_225:\n        /* \"#utility.yul\":4801:5354   */\n      swap3\n      pop\n      swap3\n      swap1\n      pop\n      jump\t// out\n        /* \"#utility.yul\":5360:5482   */\n    tag_148:\n        /* \"#utility.yul\":5433:5457   */\n      tag_228\n        /* \"#utility.yul\":5451:5456   */\n      dup2\n        /* \"#utility.yul\":5433:5457   */\n      tag_139\n      jump\t// in\n    tag_228:\n        /* \"#utility.yul\":5426:5431   */\n      dup2\n        /* \"#utility.yul\":5423:5458   */\n      eq\n        /* \"#utility.yul\":5413:5476   */\n      tag_229\n      jumpi\n        /* \"#utility.yul\":5472:5473   */\n      0x00\n        /* \"#utility.yul\":5469:5470   */\n      dup1\n        /* \"#utility.yul\":5462:5474   */\n      revert\n        /* \"#utility.yul\":5413:5476   */\n    tag_229:\n        /* \"#utility.yul\":5360:5482   */\n      pop\n      jump\t// out\n        /* \"#utility.yul\":5488:5627   */\n    tag_149:\n        /* \"#utility.yul\":5534:5539   */\n      0x00\n        /* \"#utility.yul\":5572:5578   */\n      dup2\n        /* \"#utility.yul\":5559:5579   */\n      calldataload\n        /* \"#utility.yul\":5550:5579   */\n      swap1\n      pop\n        /* \"#utility.yul\":5588:5621   */\n      tag_231\n        /* \"#utility.yul\":5615:5620   */\n      dup2\n        /* \"#utility.yul\":5588:5621   */\n      tag_148\n      jump\t// in\n    tag_231:\n        /* \"#utility.yul\":5488:5627   */\n      swap3\n      swap2\n      pop\n      pop\n      jump\t// out\n        /* \"#utility.yul\":5633:6307   */\n    tag_21:\n        /* \"#utility.yul\":5713:5719   */\n      0x00\n        /* \"#utility.yul\":5721:5727   */\n      dup1\n        /* \"#utility.yul\":5729:5735   */\n      0x00\n        /* \"#utility.yul\":5778:5780   */\n      0x40\n        /* \"#utility.yul\":5766:5775   */\n      dup5\n        /* \"#utility.yul\":5757:5764   */\n      dup7\n        /* \"#utility.yul\":5753:5776   */\n      sub\n        /* \"#utility.yul\":5749:5781   */\n      slt\n        /* \"#utility.yul\":5746:5865   */\n      iszero\n      tag_233\n      jumpi\n        /* \"#utility.yul\":5784:5863   */\n      tag_234\n      tag_128\n      jump\t// in\n    tag_234:\n        /* \"#utility.yul\":5746:5865   */\n    tag_233:\n        /* \"#utility.yul\":5932:5933   */\n      0x00\n        /* \"#utility.yul\":5921:5930   */\n      dup5\n        /* \"#utility.yul\":5917:5934   */\n      add\n        /* \"#utility.yul\":5904:5935   */\n      calldataload\n        /* \"#utility.yul\":5962:5980   */\n      0xffffffffffffffff\n        /* \"#utility.yul\":5954:5960   */\n      dup2\n        /* \"#utility.yul\":5951:5981   */\n      gt\n        /* \"#utility.yul\":5948:6065   */\n      iszero\n      tag_235\n      jumpi\n        /* \"#utility.yul\":5984:6063   */\n      tag_236\n      tag_129\n      jump\t// in\n    tag_236:\n        /* \"#utility.yul\":5948:6065   */\n    tag_235:\n        /* \"#utility.yul\":6097:6162   */\n      tag_237\n        /* \"#utility.yul\":6154:6161   */\n      dup7\n        /* \"#utility.yul\":6145:6151   */\n      dup3\n        /* \"#utility.yul\":6134:6143   */\n      dup8\n        /* \"#utility.yul\":6130:6152   */\n      add\n        /* \"#utility.yul\":6097:6162   */\n      tag_147\n      jump\t// in\n    tag_237:\n        /* \"#utility.yul\":6079:6162   */\n      swap4\n      pop\n      swap4\n      pop\n        /* \"#utility.yul\":5875:6172   */\n      pop\n        /* \"#utility.yul\":6211:6213   */\n      0x20\n        /* \"#utility.yul\":6237:6290   */\n      tag_238\n        /* \"#utility.yul\":6282:6289   */\n      dup7\n        /* \"#utility.yul\":6273:6279   */\n      dup3\n        /* \"#utility.yul\":6262:6271   */\n      dup8\n        /* \"#utility.yul\":6258:6280   */\n      add\n        /* \"#utility.yul\":6237:6290   */\n      tag_149\n      jump\t// in\n    tag_238:\n        /* \"#utility.yul\":6227:6290   */\n      swap2\n      pop\n        /* \"#utility.yul\":6182:6300   */\n      pop\n        /* \"#utility.yul\":5633:6307   */\n      swap3\n      pop\n      swap3\n      pop\n      swap3\n      jump\t// out\n        /* \"#utility.yul\":6313:6399   */\n    tag_150:\n        /* \"#utility.yul\":6348:6355   */\n      0x00\n        /* \"#utility.yul\":6388:6392   */\n      0xff\n        /* \"#utility.yul\":6381:6386   */\n      dup3\n        /* \"#utility.yul\":6377:6393   */\n      and\n        /* \"#utility.yul\":6366:6393   */\n      swap1\n      pop\n        /* \"#utility.yul\":6313:6399   */\n      swap2\n      swap1\n      pop\n      jump\t// out\n        /* \"#utility.yul\":6405:6523   */\n    tag_151:\n        /* \"#utility.yul\":6476:6498   */\n      tag_241\n        /* \"#utility.yul\":6492:6497   */\n      dup2\n        /* \"#utility.yul\":6476:6498   */\n      tag_150\n      jump\t// in\n    tag_241:\n        /* \"#utility.yul\":6469:6474   */\n      dup2\n        /* \"#utility.yul\":6466:6499   */\n      eq\n        /* \"#utility.yul\":6456:6517   */\n      tag_242\n      jumpi\n        /* \"#utility.yul\":6513:6514   */\n      0x00\n        /* \"#utility.yul\":6510:6511   */\n      dup1\n        /* \"#utility.yul\":6503:6515   */\n      revert\n        /* \"#utility.yul\":6456:6517   */\n    tag_242:\n        /* \"#utility.yul\":6405:6523   */\n      pop\n      jump\t// out\n        /* \"#utility.yul\":6529:6664   */\n    tag_152:\n        /* \"#utility.yul\":6573:6578   */\n      0x00\n        /* \"#utility.yul\":6611:6617   */\n      dup2\n        /* \"#utility.yul\":6598:6618   */\n      calldataload\n        /* \"#utility.yul\":6589:6618   */\n      swap1\n      pop\n        /* \"#utility.yul\":6627:6658   */\n      tag_244\n        /* \"#utility.yul\":6652:6657   */\n      dup2\n        /* \"#utility.yul\":6627:6658   */\n      tag_151\n      jump\t// in\n    tag_244:\n        /* \"#utility.yul\":6529:6664   */\n      swap3\n      swap2\n      pop\n      pop\n      jump\t// out\n        /* \"#utility.yul\":6670:6995   */\n    tag_27:\n        /* \"#utility.yul\":6727:6733   */\n      0x00\n        /* \"#utility.yul\":6776:6778   */\n      0x20\n        /* \"#utility.yul\":6764:6773   */\n      dup3\n        /* \"#utility.yul\":6755:6762   */\n      dup5\n        /* \"#utility.yul\":6751:6774   */\n      sub\n        /* \"#utility.yul\":6747:6779   */\n      slt\n        /* \"#utility.yul\":6744:6863   */\n      iszero\n      tag_246\n      jumpi\n        /* \"#utility.yul\":6782:6861   */\n      tag_247\n      tag_128\n      jump\t// in\n    tag_247:\n        /* \"#utility.yul\":6744:6863   */\n    tag_246:\n        /* \"#utility.yul\":6902:6903   */\n      0x00\n        /* \"#utility.yul\":6927:6978   */\n      tag_248\n        /* \"#utility.yul\":6970:6977   */\n      dup5\n        /* \"#utility.yul\":6961:6967   */\n      dup3\n        /* \"#utility.yul\":6950:6959   */\n      dup6\n        /* \"#utility.yul\":6946:6968   */\n      add\n        /* \"#utility.yul\":6927:6978   */\n      tag_152\n      jump\t// in\n    tag_248:\n        /* \"#utility.yul\":6917:6978   */\n      swap2\n      pop\n        /* \"#utility.yul\":6873:6988   */\n      pop\n        /* \"#utility.yul\":6670:6995   */\n      swap3\n      swap2\n      pop\n      pop\n      jump\t// out\n        /* \"#utility.yul\":7001:7330   */\n    tag_31:\n        /* \"#utility.yul\":7060:7066   */\n      0x00\n        /* \"#utility.yul\":7109:7111   */\n      0x20\n        /* \"#utility.yul\":7097:7106   */\n      dup3\n        /* \"#utility.yul\":7088:7095   */\n      dup5\n        /* \"#utility.yul\":7084:7107   */\n      sub\n        /* \"#utility.yul\":7080:7112   */\n      slt\n        /* \"#utility.yul\":7077:7196   */\n      iszero\n      tag_250\n      jumpi\n        /* \"#utility.yul\":7115:7194   */\n      tag_251\n      tag_128\n      jump\t// in\n    tag_251:\n        /* \"#utility.yul\":7077:7196   */\n    tag_250:\n        /* \"#utility.yul\":7235:7236   */\n      0x00\n        /* \"#utility.yul\":7260:7313   */\n      tag_252\n        /* \"#utility.yul\":7305:7312   */\n      dup5\n        /* \"#utility.yul\":7296:7302   */\n      dup3\n        /* \"#utility.yul\":7285:7294   */\n      dup6\n        /* \"#utility.yul\":7281:7303   */\n      add\n        /* \"#utility.yul\":7260:7313   */\n      tag_149\n      jump\t// in\n    tag_252:\n        /* \"#utility.yul\":7250:7313   */\n      swap2\n      pop\n        /* \"#utility.yul\":7206:7323   */\n      pop\n        /* \"#utility.yul\":7001:7330   */\n      swap3\n      swap2\n      pop\n      pop\n      jump\t// out\n        /* \"#utility.yul\":7336:7445   */\n    tag_153:\n        /* \"#utility.yul\":7417:7438   */\n      tag_254\n        /* \"#utility.yul\":7432:7437   */\n      dup2\n        /* \"#utility.yul\":7417:7438   */\n      tag_141\n      jump\t// in\n    tag_254:\n        /* \"#utility.yul\":7412:7415   */\n      dup3\n        /* \"#utility.yul\":7405:7439   */\n      mstore\n        /* \"#utility.yul\":7336:7445   */\n      pop\n      pop\n      jump\t// out\n        /* \"#utility.yul\":7451:7661   */\n    tag_38:\n        /* \"#utility.yul\":7538:7542   */\n      0x00\n        /* \"#utility.yul\":7576:7578   */\n      0x20\n        /* \"#utility.yul\":7565:7574   */\n      dup3\n        /* \"#utility.yul\":7561:7579   */\n      add\n        /* \"#utility.yul\":7553:7579   */\n      swap1\n      pop\n        /* \"#utility.yul\":7589:7654   */\n      tag_256\n        /* \"#utility.yul\":7651:7652   */\n      0x00\n        /* \"#utility.yul\":7640:7649   */\n      dup4\n        /* \"#utility.yul\":7636:7653   */\n      add\n        /* \"#utility.yul\":7627:7633   */\n      dup5\n        /* \"#utility.yul\":7589:7654   */\n      tag_153\n      jump\t// in\n    tag_256:\n        /* \"#utility.yul\":7451:7661   */\n      swap3\n      swap2\n      pop\n      pop\n      jump\t// out\n        /* \"#utility.yul\":7667:7847   */\n    tag_154:\n        /* \"#utility.yul\":7715:7792   */\n      0x4e487b7100000000000000000000000000000000000000000000000000000000\n        /* \"#utility.yul\":7712:7713   */\n      0x00\n        /* \"#utility.yul\":7705:7793   */\n      mstore\n        /* \"#utility.yul\":7812:7816   */\n      0x22\n        /* \"#utility.yul\":7809:7810   */\n      0x04\n        /* \"#utility.yul\":7802:7817   */\n      mstore\n        /* \"#utility.yul\":7836:7840   */\n      0x24\n        /* \"#utility.yul\":7833:7834   */\n      0x00\n        /* \"#utility.yul\":7826:7841   */\n      revert\n        /* \"#utility.yul\":7853:8173   */\n    tag_46:\n        /* \"#utility.yul\":7897:7903   */\n      0x00\n        /* \"#utility.yul\":7934:7935   */\n      0x02\n        /* \"#utility.yul\":7928:7932   */\n      dup3\n        /* \"#utility.yul\":7924:7936   */\n      div\n        /* \"#utility.yul\":7914:7936   */\n      swap1\n      pop\n        /* \"#utility.yul\":7981:7982   */\n      0x01\n        /* \"#utility.yul\":7975:7979   */\n      dup3\n        /* \"#utility.yul\":7971:7983   */\n      and\n        /* \"#utility.yul\":8002:8020   */\n      dup1\n        /* \"#utility.yul\":7992:8073   */\n      tag_259\n      jumpi\n        /* \"#utility.yul\":8058:8062   */\n      0x7f\n        /* \"#utility.yul\":8050:8056   */\n      dup3\n        /* \"#utility.yul\":8046:8063   */\n      and\n        /* \"#utility.yul\":8036:8063   */\n      swap2\n      pop\n        /* \"#utility.yul\":7992:8073   */\n    tag_259:\n        /* \"#utility.yul\":8120:8122   */\n      0x20\n        /* \"#utility.yul\":8112:8118   */\n      dup3\n        /* \"#utility.yul\":8109:8123   */\n      lt\n        /* \"#utility.yul\":8089:8107   */\n      dup2\n        /* \"#utility.yul\":8086:8124   */\n      sub\n        /* \"#utility.yul\":8083:8167   */\n      tag_260\n      jumpi\n        /* \"#utility.yul\":8139:8157   */\n      tag_261\n      tag_154\n      jump\t// in\n    tag_261:\n        /* \"#utility.yul\":8083:8167   */\n    tag_260:\n        /* \"#utility.yul\":7904:8173   */\n      pop\n        /* \"#utility.yul\":7853:8173   */\n      swap2\n      swap1\n      pop\n      jump\t// out\n        /* \"#utility.yul\":8179:8359   */\n    tag_155:\n        /* \"#utility.yul\":8227:8304   */\n      0x4e487b7100000000000000000000000000000000000000000000000000000000\n        /* \"#utility.yul\":8224:8225   */\n      0x00\n        /* \"#utility.yul\":8217:8305   */\n      mstore\n        /* \"#utility.yul\":8324:8328   */\n      0x11\n        /* \"#utility.yul\":8321:8322   */\n      0x04\n        /* \"#utility.yul\":8314:8329   */\n      mstore\n        /* \"#utility.yul\":8348:8352   */\n      0x24\n        /* \"#utility.yul\":8345:8346   */\n      0x00\n        /* \"#utility.yul\":8338:8353   */\n      revert\n        /* \"#utility.yul\":8365:8556   */\n    tag_55:\n        /* \"#utility.yul\":8405:8408   */\n      0x00\n        /* \"#utility.yul\":8424:8444   */\n      tag_264\n        /* \"#utility.yul\":8442:8443   */\n      dup3\n        /* \"#utility.yul\":8424:8444   */\n      tag_139\n      jump\t// in\n    tag_264:\n        /* \"#utility.yul\":8419:8444   */\n      swap2\n      pop\n        /* \"#utility.yul\":8458:8478   */\n      tag_265\n        /* \"#utility.yul\":8476:8477   */\n      dup4\n        /* \"#utility.yul\":8458:8478   */\n      tag_139\n      jump\t// in\n    tag_265:\n        /* \"#utility.yul\":8453:8478   */\n      swap3\n      pop\n        /* \"#utility.yul\":8501:8502   */\n      dup3\n        /* \"#utility.yul\":8498:8499   */\n      dup3\n        /* \"#utility.yul\":8494:8503   */\n      add\n        /* \"#utility.yul\":8487:8503   */\n      swap1\n      pop\n        /* \"#utility.yul\":8522:8525   */\n      dup1\n        /* \"#utility.yul\":8519:8520   */\n      dup3\n        /* \"#utility.yul\":8516:8526   */\n      gt\n        /* \"#utility.yul\":8513:8549   */\n      iszero\n      tag_266\n      jumpi\n        /* \"#utility.yul\":8529:8547   */\n      tag_267\n      tag_155\n      jump\t// in\n    tag_267:\n        /* \"#utility.yul\":8513:8549   */\n    tag_266:\n        /* \"#utility.yul\":8365:8556   */\n      swap3\n      swap2\n      pop\n      pop\n      jump\t// out\n        /* \"#utility.yul\":8562:8742   */\n    tag_156:\n        /* \"#utility.yul\":8610:8687   */\n      0x4e487b7100000000000000000000000000000000000000000000000000000000\n        /* \"#utility.yul\":8607:8608   */\n      0x00\n        /* \"#utility.yul\":8600:8688   */\n      mstore\n        /* \"#utility.yul\":8707:8711   */\n      0x41\n        /* \"#utility.yul\":8704:8705   */\n      0x04\n        /* \"#utility.yul\":8697:8712   */\n      mstore\n        /* \"#utility.yul\":8731:8735   */\n      0x24\n        /* \"#utility.yul\":8728:8729   */\n      0x00\n        /* \"#utility.yul\":8721:8736   */\n      revert\n        /* \"#utility.yul\":8748:8889   */\n    tag_157:\n        /* \"#utility.yul\":8797:8801   */\n      0x00\n        /* \"#utility.yul\":8820:8823   */\n      dup2\n        /* \"#utility.yul\":8812:8823   */\n      swap1\n      pop\n        /* \"#utility.yul\":8843:8846   */\n      dup2\n        /* \"#utility.yul\":8840:8841   */\n      0x00\n        /* \"#utility.yul\":8833:8847   */\n      mstore\n        /* \"#utility.yul\":8877:8881   */\n      0x20\n        /* \"#utility.yul\":8874:8875   */\n      0x00\n        /* \"#utility.yul\":8864:8882   */\n      keccak256\n        /* \"#utility.yul\":8856:8882   */\n      swap1\n      pop\n        /* \"#utility.yul\":8748:8889   */\n      swap2\n      swap1\n      pop\n      jump\t// out\n        /* \"#utility.yul\":8895:8988   */\n    tag_158:\n        /* \"#utility.yul\":8932:8938   */\n      0x00\n        /* \"#utility.yul\":8979:8981   */\n      0x20\n        /* \"#utility.yul\":8974:8976   */\n      0x1f\n        /* \"#utility.yul\":8967:8972   */\n      dup4\n        /* \"#utility.yul\":8963:8977   */\n      add\n        /* \"#utility.yul\":8959:8982   */\n      div\n        /* \"#utility.yul\":8949:8982   */\n      swap1\n      pop\n        /* \"#utility.yul\":8895:8988   */\n      swap2\n      swap1\n      pop\n      jump\t// out\n        /* \"#utility.yul\":8994:9101   */\n    tag_159:\n        /* \"#utility.yul\":9038:9046   */\n      0x00\n        /* \"#utility.yul\":9088:9093   */\n      dup3\n        /* \"#utility.yul\":9082:9086   */\n      dup3\n        /* \"#utility.yul\":9078:9094   */\n      shl\n        /* \"#utility.yul\":9057:9094   */\n      swap1\n      pop\n        /* \"#utility.yul\":8994:9101   */\n      swap3\n      swap2\n      pop\n      pop\n      jump\t// out\n        /* \"#utility.yul\":9107:9500   */\n    tag_160:\n        /* \"#utility.yul\":9176:9182   */\n      0x00\n        /* \"#utility.yul\":9226:9227   */\n      0x08\n        /* \"#utility.yul\":9214:9224   */\n      dup4\n        /* \"#utility.yul\":9210:9228   */\n      mul\n        /* \"#utility.yul\":9249:9346   */\n      tag_273\n        /* \"#utility.yul\":9279:9345   */\n      0xffffffffffffffffffffffffffffffffffffffffffffffffffffffffffffffff\n        /* \"#utility.yul\":9268:9277   */\n      dup3\n        /* \"#utility.yul\":9249:9346   */\n      tag_159\n      jump\t// in\n    tag_273:\n        /* \"#utility.yul\":9367:9406   */\n      tag_274\n        /* \"#utility.yul\":9397:9405   */\n      dup7\n        /* \"#utility.yul\":9386:9395   */\n      dup4\n        /* \"#utility.yul\":9367:9406   */\n      tag_159\n      jump\t// in\n    tag_274:\n        /* \"#utility.yul\":9355:9406   */\n      swap6\n      pop\n        /* \"#utility.yul\":9439:9443   */\n      dup1\n        /* \"#utility.yul\":9435:9444   */\n      not\n        /* \"#utility.yul\":9428:9433   */\n      dup5\n        /* \"#utility.yul\":9424:9445   */\n      and\n        /* \"#utility.yul\":9415:9445   */\n      swap4\n      pop\n        /* \"#utility.yul\":9488:9492   */\n      dup1\n        /* \"#utility.yul\":9478:9486   */\n      dup7\n        /* \"#utility.yul\":9474:9493   */\n      and\n        /* \"#utility.yul\":9467:9472   */\n      dup5\n        /* \"#utility.yul\":9464:9494   */\n      or\n        /* \"#utility.yul\":9454:9494   */\n      swap3\n      pop\n        /* \"#utility.yul\":9183:9500   */\n      pop\n      pop\n        /* \"#utility.yul\":9107:9500   */\n      swap4\n      swap3\n      pop\n      pop\n      pop\n      jump\t// out\n        /* \"#utility.yul\":9506:9566   */\n    tag_161:\n        /* \"#utility.yul\":9534:9537   */\n      0x00\n        /* \"#utility.yul\":9555:9560   */\n      dup2\n        /* \"#utility.yul\":9548:9560   */\n      swap1\n      pop\n        /* \"#utility.yul\":9506:9566   */\n      swap2\n      swap1\n      pop\n      jump\t// out\n        /* \"#utility.yul\":9572:9714   */\n    tag_162:\n        /* \"#utility.yul\":9622:9631   */\n      0x00\n        /* \"#utility.yul\":9655:9708   */\n      tag_277\n        /* \"#utility.yul\":9673:9707   */\n      tag_278\n        /* \"#utility.yul\":9682:9706   */\n      tag_279\n        /* \"#utility.yul\":9700:9705   */\n      dup5\n        /* \"#utility.yul\":9682:9706   */\n      tag_139\n      jump\t// in\n    tag_279:\n        /* \"#utility.yul\":9673:9707   */\n      tag_161\n      jump\t// in\n    tag_278:\n        /* \"#utility.yul\":9655:9708   */\n      tag_139\n      jump\t// in\n    tag_277:\n        /* \"#utility.yul\":9642:9708   */\n      swap1\n      pop\n        /* \"#utility.yul\":9572:9714   */\n      swap2\n      swap1\n      pop\n      jump\t// out\n        /* \"#utility.yul\":9720:9795   */\n    tag_163:\n        /* \"#utility.yul\":9763:9766   */\n      0x00\n        /* \"#utility.yul\":9784:9789   */\n      dup2\n        /* \"#utility.yul\":9777:9789   */\n      swap1\n      pop\n        /* \"#utility.yul\":9720:9795   */\n      swap2\n      swap1\n      pop\n      jump\t// out\n        /* \"#utility.yul\":9801:10070   */\n    tag_164:\n        /* \"#utility.yul\":9911:9950   */\n      tag_282\n        /* \"#utility.yul\":9942:9949   */\n      dup4\n        /* \"#utility.yul\":9911:9950   */\n      tag_162\n      jump\t// in\n    tag_282:\n        /* \"#utility.yul\":9972:10063   */\n      tag_283\n        /* \"#utility.yul\":10021:10062   */\n      tag_284\n        /* \"#utility.yul\":10045:10061   */\n      dup3\n        /* \"#utility.yul\":10021:10062   */\n      tag_163\n      jump\t// in\n    tag_284:\n        /* \"#utility.yul\":10013:10019   */\n      dup5\n        /* \"#utility.yul\":10006:10010   */\n      dup5\n        /* \"#utility.yul\":10000:10011   */\n      sload\n        /* \"#utility.yul\":9972:10063   */\n      tag_160\n      jump\t// in\n    tag_283:\n        /* \"#utility.yul\":9966:9970   */\n      dup3\n        /* \"#utility.yul\":9959:10064   */\n      sstore\n        /* \"#utility.yul\":9877:10070   */\n      pop\n        /* \"#utility.yul\":9801:10070   */\n      pop\n      pop\n      pop\n      jump\t// out\n        /* \"#utility.yul\":10076:10149   */\n    tag_165:\n        /* \"#utility.yul\":10121:10124   */\n      0x00\n        /* \"#utility.yul\":10076:10149   */\n      swap1\n      jump\t// out\n        /* \"#utility.yul\":10155:10344   */\n    tag_166:\n        /* \"#utility.yul\":10232:10264   */\n      tag_287\n      tag_165\n      jump\t// in\n    tag_287:\n        /* \"#utility.yul\":10273:10338   */\n      tag_288\n        /* \"#utility.yul\":10331:10337   */\n      dup2\n        /* \"#utility.yul\":10323:10329   */\n      dup5\n        /* \"#utility.yul\":10317:10321   */\n      dup5\n        /* \"#utility.yul\":10273:10338   */\n      tag_164\n      jump\t// in\n    tag_288:\n        /* \"#utility.yul\":10208:10344   */\n      pop\n        /* \"#utility.yul\":10155:10344   */\n      pop\n      pop\n      jump\t// out\n        /* \"#utility.yul\":10350:10536   */\n    tag_167:\n        /* \"#utility.yul\":10410:10530   */\n    tag_290:\n        /* \"#utility.yul\":10427:10430   */\n      dup2\n        /* \"#utility.yul\":10420:10425   */\n      dup2\n        /* \"#utility.yul\":10417:10431   */\n      lt\n        /* \"#utility.yul\":10410:10530   */\n      iszero\n      tag_292\n      jumpi\n        /* \"#utility.yul\":10481:10520   */\n      tag_293\n        /* \"#utility.yul\":10518:10519   */\n      0x00\n        /* \"#utility.yul\":10511:10516   */\n      dup3\n        /* \"#utility.yul\":10481:10520   */\n      tag_166\n      jump\t// in\n    tag_293:\n        /* \"#utility.yul\":10454:10455   */\n      0x01\n        /* \"#utility.yul\":10447:10452   */\n      dup2\n        /* \"#utility.yul\":10443:10456   */\n      add\n        /* \"#utility.yul\":10434:10456   */\n      swap1\n      pop\n        /* \"#utility.yul\":10410:10530   */\n      jump(tag_290)\n    tag_292:\n        /* \"#utility.yul\":10350:10536   */\n      pop\n      pop\n      jump\t// out\n        /* \"#utility.yul\":10542:11085   */\n    tag_168:\n        /* \"#utility.yul\":10643:10645   */\n      0x1f\n        /* \"#utility.yul\":10638:10641   */\n      dup3\n        /* \"#utility.yul\":10635:10646   */\n      gt\n        /* \"#utility.yul\":10632:11078   */\n      iszero\n      tag_295\n      jumpi\n        /* \"#utility.yul\":10677:10715   */\n      tag_296\n        /* \"#utility.yul\":10709:10714   */\n      dup2\n        /* \"#utility.yul\":10677:10715   */\n      tag_157\n      jump\t// in\n    tag_296:\n        /* \"#utility.yul\":10761:10790   */\n      tag_297\n        /* \"#utility.yul\":10779:10789   */\n      dup5\n        /* \"#utility.yul\":10761:10790   */\n      tag_158\n      jump\t// in\n    tag_297:\n        /* \"#utility.yul\":10751:10759   */\n      dup2\n        /* \"#utility.yul\":10747:10791   */\n      add\n        /* \"#utility.yul\":10944:10946   */\n      0x20\n        /* \"#utility.yul\":10932:10942   */\n      dup6\n        /* \"#utility.yul\":10929:10947   */\n      lt\n        /* \"#utility.yul\":10926:10975   */\n      iszero\n      tag_298\n      jumpi\n        /* \"#utility.yul\":10965:10973   */\n      dup2\n        /* \"#utility.yul\":10950:10973   */\n      swap1\n      pop\n        /* \"#utility.yul\":10926:10975   */\n    tag_298:\n        /* \"#utility.yul\":10988:11068   */\n      tag_299\n        /* \"#utility.yul\":11044:11066   */\n      tag_300\n        /* \"#utility.yul\":11062:11065   */\n      dup6\n        /* \"#utility.yul\":11044:11066   */\n      tag_158\n      jump\t// in\n    tag_300:\n        /* \"#utility.yul\":11034:11042   */\n      dup4\n        /* \"#utility.yul\":11030:11067   */\n      add\n        /* \"#utility.yul\":11017:11028   */\n      dup3\n        /* \"#utility.yul\":10988:11068   */\n      tag_167\n      jump\t// in\n    tag_299:\n        /* \"#utility.yul\":10647:11078   */\n      pop\n      pop\n        /* \"#utility.yul\":10632:11078   */\n    tag_295:\n        /* \"#utility.yul\":10542:11085   */\n      pop\n      pop\n      pop\n      jump\t// out\n        /* \"#utility.yul\":11091:11208   */\n    tag_169:\n        /* \"#utility.yul\":11145:11153   */\n      0x00\n        /* \"#utility.yul\":11195:11200   */\n      dup3\n        /* \"#utility.yul\":11189:11193   */\n      dup3\n        /* \"#utility.yul\":11185:11201   */\n      shr\n        /* \"#utility.yul\":11164:11201   */\n      swap1\n      pop\n        /* \"#utility.yul\":11091:11208   */\n      swap3\n      swap2\n      pop\n      pop\n      jump\t// out\n        /* \"#utility.yul\":11214:11383   */\n    tag_170:\n        /* \"#utility.yul\":11258:11264   */\n      0x00\n        /* \"#utility.yul\":11291:11342   */\n      tag_303\n        /* \"#utility.yul\":11339:11340   */\n      0x00\n        /* \"#utility.yul\":11335:11341   */\n      not\n        /* \"#utility.yul\":11327:11332   */\n      dup5\n        /* \"#utility.yul\":11324:11325   */\n      0x08\n        /* \"#utility.yul\":11320:11333   */\n      mul\n        /* \"#utility.yul\":11291:11342   */\n      tag_169\n      jump\t// in\n    tag_303:\n        /* \"#utility.yul\":11287:11343   */\n      not\n        /* \"#utility.yul\":11372:11376   */\n      dup1\n        /* \"#utility.yul\":11366:11370   */\n      dup4\n        /* \"#utility.yul\":11362:11377   */\n      and\n        /* \"#utility.yul\":11352:11377   */\n      swap2\n      pop\n        /* \"#utility.yul\":11265:11383   */\n      pop\n        /* \"#utility.yul\":11214:11383   */\n      swap3\n      swap2\n      pop\n      pop\n      jump\t// out\n        /* \"#utility.yul\":11388:11683   */\n    tag_171:\n        /* \"#utility.yul\":11464:11468   */\n      0x00\n        /* \"#utility.yul\":11610:11639   */\n      tag_305\n        /* \"#utility.yul\":11635:11638   */\n      dup4\n        /* \"#utility.yul\":11629:11633   */\n      dup4\n        /* \"#utility.yul\":11610:11639   */\n      tag_170\n      jump\t// in\n    tag_305:\n        /* \"#utility.yul\":11602:11639   */\n      swap2\n      pop\n        /* \"#utility.yul\":11672:11675   */\n      dup3\n        /* \"#utility.yul\":11669:11670   */\n      0x02\n        /* \"#utility.yul\":11665:11676   */\n      mul\n        /* \"#utility.yul\":11659:11663   */\n      dup3\n        /* \"#utility.yul\":11656:11677   */\n      or\n        /* \"#utility.yul\":11648:11677   */\n      swap1\n      pop\n        /* \"#utility.yul\":11388:11683   */\n      swap3\n      swap2\n      pop\n      pop\n      jump\t// out\n        /* \"#utility.yul\":11688:13083   */\n    tag_57:\n        /* \"#utility.yul\":11805:11842   */\n      tag_307\n        /* \"#utility.yul\":11838:11841   */\n      dup3\n        /* \"#utility.yul\":11805:11842   */\n      tag_134\n      jump\t// in\n    tag_307:\n        /* \"#utility.yul\":11907:11925   */\n      0xffffffffffffffff\n        /* \"#utility.yul\":11899:11905   */\n      dup2\n        /* \"#utility.yul\":11896:11926   */\n      gt\n        /* \"#utility.yul\":11893:11949   */\n      iszero\n      tag_308\n      jumpi\n        /* \"#utility.yul\":11929:11947   */\n      tag_309\n      tag_156\n      jump\t// in\n    tag_309:\n        /* \"#utility.yul\":11893:11949   */\n    tag_308:\n        /* \"#utility.yul\":11973:12011   */\n      tag_310\n        /* \"#utility.yul\":12005:12009   */\n      dup3\n        /* \"#utility.yul\":11999:12010   */\n      sload\n        /* \"#utility.yul\":11973:12011   */\n      tag_46\n      jump\t// in\n    tag_310:\n        /* \"#utility.yul\":12058:12125   */\n      tag_311\n        /* \"#utility.yul\":12118:12124   */\n      dup3\n        /* \"#utility.yul\":12110:12116   */\n      dup3\n        /* \"#utility.yul\":12104:12108   */\n      dup6\n        /* \"#utility.yul\":12058:12125   */\n      tag_168\n      jump\t// in\n    tag_311:\n        /* \"#utility.yul\":12152:12153   */\n      0x00\n        /* \"#utility.yul\":12176:12180   */\n      0x20\n        /* \"#utility.yul\":12163:12180   */\n      swap1\n      pop\n        /* \"#utility.yul\":12208:12210   */\n      0x1f\n        /* \"#utility.yul\":12200:12206   */\n      dup4\n        /* \"#utility.yul\":12197:12211   */\n      gt\n        /* \"#utility.yul\":12225:12226   */\n      0x01\n        /* \"#utility.yul\":12220:12838   */\n      dup2\n      eq\n      tag_313\n      jumpi\n        /* \"#utility.yul\":12882:12883   */\n      0x00\n        /* \"#utility.yul\":12899:12905   */\n      dup5\n        /* \"#utility.yul\":12896:12973   */\n      iszero\n      tag_314\n      jumpi\n        /* \"#utility.yul\":12948:12957   */\n      dup3\n        /* \"#utility.yul\":12943:12946   */\n      dup8\n        /* \"#utility.yul\":12939:12958   */\n      add\n        /* \"#utility.yul\":12933:12959   */\n      mload\n        /* \"#utility.yul\":12924:12959   */\n      swap1\n      pop\n        /* \"#utility.yul\":12896:12973   */\n    tag_314:\n        /* \"#utility.yul\":12999:13066   */\n      tag_315\n        /* \"#utility.yul\":13059:13065   */\n      dup6\n        /* \"#utility.yul\":13052:13057   */\n      dup3\n        /* \"#utility.yul\":12999:13066   */\n      tag_171\n      jump\t// in\n    tag_315:\n        /* \"#utility.yul\":12993:12997   */\n      dup7\n        /* \"#utility.yul\":12986:13067   */\n      sstore\n        /* \"#utility.yul\":12855:13077   */\n      pop\n        /* \"#utility.yul\":12190:13077   */\n      jump(tag_312)\n        /* \"#utility.yul\":12220:12838   */\n    tag_313:\n        /* \"#utility.yul\":12272:12276   */\n      0x1f\n        /* \"#utility.yul\":12268:12277   */\n      not\n        /* \"#utility.yul\":12260:12266   */\n      dup5\n        /* \"#utility.yul\":12256:12278   */\n      and\n        /* \"#utility.yul\":12306:12343   */\n      tag_316\n        /* \"#utility.yul\":12338:12342   */\n      dup7\n        /* \"#utility.yul\":12306:12343   */\n      tag_157\n      jump\t// in\n    tag_316:\n        /* \"#utility.yul\":12365:12366   */\n      0x00\n        /* \"#utility.yul\":12379:12587   */\n    tag_317:\n        /* \"#utility.yul\":12393:12400   */\n      dup3\n        /* \"#utility.yul\":12390:12391   */\n      dup2\n        /* \"#utility.yul\":12387:12401   */\n      lt\n        /* \"#utility.yul\":12379:12587   */\n      iszero\n      tag_319\n      jumpi\n        /* \"#utility.yul\":12472:12481   */\n      dup5\n        /* \"#utility.yul\":12467:12470   */\n      dup10\n        /* \"#utility.yul\":12463:12482   */\n      add\n        /* \"#utility.yul\":12457:12483   */\n      mload\n        /* \"#utility.yul\":12449:12455   */\n      dup3\n        /* \"#utility.yul\":12442:12484   */\n      sstore\n        /* \"#utility.yul\":12523:12524   */\n      0x01\n        /* \"#utility.yul\":12515:12521   */\n      dup3\n        /* \"#utility.yul\":12511:12525   */\n      add\n        /* \"#utility.yul\":12501:12525   */\n      swap2\n      pop\n        /* \"#utility.yul\":12570:12572   */\n      0x20\n        /* \"#utility.yul\":12559:12568   */\n      dup6\n        /* \"#utility.yul\":12555:12573   */\n      add\n        /* \"#utility.yul\":12542:12573   */\n      swap5\n      pop\n        /* \"#utility.yul\":12416:12420   */\n      0x20\n        /* \"#utility.yul\":12413:12414   */\n      dup2\n        /* \"#utility.yul\":12409:12421   */\n      add\n        /* \"#utility.yul\":12404:12421   */\n      swap1\n      pop\n        /* \"#utility.yul\":12379:12587   */\n      jump(tag_317)\n    tag_319:\n        /* \"#utility.yul\":12615:12621   */\n      dup7\n        /* \"#utility.yul\":12606:12613   */\n      dup4\n        /* \"#utility.yul\":12603:12622   */\n      lt\n        /* \"#utility.yul\":12600:12779   */\n      iszero\n      tag_320\n      jumpi\n        /* \"#utility.yul\":12673:12682   */\n      dup5\n        /* \"#utility.yul\":12668:12671   */\n      dup10\n        /* \"#utility.yul\":12664:12683   */\n      add\n        /* \"#utility.yul\":12658:12684   */\n      mload\n        /* \"#utility.yul\":12716:12764   */\n      tag_321\n        /* \"#utility.yul\":12758:12762   */\n      0x1f\n        /* \"#utility.yul\":12750:12756   */\n      dup10\n        /* \"#utility.yul\":12746:12763   */\n      and\n        /* \"#utility.yul\":12735:12744   */\n      dup3\n        /* \"#utility.yul\":12716:12764   */\n      tag_170\n      jump\t// in\n    tag_321:\n        /* \"#utility.yul\":12708:12714   */\n      dup4\n        /* \"#utility.yul\":12701:12765   */\n      sstore\n        /* \"#utility.yul\":12623:12779   */\n      pop\n        /* \"#utility.yul\":12600:12779   */\n    tag_320:\n        /* \"#utility.yul\":12825:12826   */\n      0x01\n        /* \"#utility.yul\":12821:12822   */\n      0x02\n        /* \"#utility.yul\":12813:12819   */\n      dup9\n        /* \"#utility.yul\":12809:12823   */\n      mul\n        /* \"#utility.yul\":12805:12827   */\n      add\n        /* \"#utility.yul\":12799:12803   */\n      dup9\n        /* \"#utility.yul\":12792:12828   */\n      sstore\n        /* \"#utility.yul\":12227:12838   */\n      pop\n      pop\n      pop\n        /* \"#utility.yul\":12190:13077   */\n    tag_312:\n      pop\n        /* \"#utility.yul\":11780:13083   */\n      pop\n      pop\n      pop\n        /* \"#utility.yul\":11688:13083   */\n      pop\n      pop\n      jump\t// out\n        /* \"#utility.yul\":13089:13258   */\n    tag_172:\n        /* \"#utility.yul\":13173:13184   */\n      0x00\n        /* \"#utility.yul\":13207:13213   */\n      dup3\n        /* \"#utility.yul\":13202:13205   */\n      dup3\n        /* \"#utility.yul\":13195:13214   */\n      mstore\n        /* \"#utility.yul\":13247:13251   */\n      0x20\n        /* \"#utility.yul\":13242:13245   */\n      dup3\n        /* \"#utility.yul\":13238:13252   */\n      add\n        /* \"#utility.yul\":13223:13252   */\n      swap1\n      pop\n        /* \"#utility.yul\":13089:13258   */\n      swap3\n      swap2\n      pop\n      pop\n      jump\t// out\n        /* \"#utility.yul\":13264:13439   */\n    tag_173:\n        /* \"#utility.yul\":13404:13431   */\n      0x416464726573732068617320616c726561647920766f74656400000000000000\n        /* \"#utility.yul\":13400:13401   */\n      0x00\n        /* \"#utility.yul\":13392:13398   */\n      dup3\n        /* \"#utility.yul\":13388:13402   */\n      add\n        /* \"#utility.yul\":13381:13432   */\n      mstore\n        /* \"#utility.yul\":13264:13439   */\n      pop\n      jump\t// out\n        /* \"#utility.yul\":13445:13811   */\n    tag_174:\n        /* \"#utility.yul\":13587:13590   */\n      0x00\n        /* \"#utility.yul\":13608:13675   */\n      tag_325\n        /* \"#utility.yul\":13672:13674   */\n      0x19\n        /* \"#utility.yul\":13667:13670   */\n      dup4\n        /* \"#utility.yul\":13608:13675   */\n      tag_172\n      jump\t// in\n    tag_325:\n        /* \"#utility.yul\":13601:13675   */\n      swap2\n      pop\n        /* \"#utility.yul\":13684:13777   */\n      tag_326\n        /* \"#utility.yul\":13773:13776   */\n      dup3\n        /* \"#utility.yul\":13684:13777   */\n      tag_173\n      jump\t// in\n    tag_326:\n        /* \"#utility.yul\":13802:13804   */\n      0x20\n        /* \"#utility.yul\":13797:13800   */\n      dup3\n        /* \"#utility.yul\":13793:13805   */\n      add\n        /* \"#utility.yul\":13786:13805   */\n      swap1\n      pop\n        /* \"#utility.yul\":13445:13811   */\n      swap2\n      swap1\n      pop\n      jump\t// out\n        /* \"#utility.yul\":13817:14236   */\n    tag_69:\n        /* \"#utility.yul\":13983:13987   */\n      0x00\n        /* \"#utility.yul\":14021:14023   */\n      0x20\n        /* \"#utility.yul\":14010:14019   */\n      dup3\n        /* \"#utility.yul\":14006:14024   */\n      add\n        /* \"#utility.yul\":13998:14024   */\n      swap1\n      pop\n        /* \"#utility.yul\":14070:14079   */\n      dup2\n        /* \"#utility.yul\":14064:14068   */\n      dup2\n        /* \"#utility.yul\":14060:14080   */\n      sub\n        /* \"#utility.yul\":14056:14057   */\n      0x00\n        /* \"#utility.yul\":14045:14054   */\n      dup4\n        /* \"#utility.yul\":14041:14058   */\n      add\n        /* \"#utility.yul\":14034:14081   */\n      mstore\n        /* \"#utility.yul\":14098:14229   */\n      tag_328\n        /* \"#utility.yul\":14224:14228   */\n      dup2\n        /* \"#utility.yul\":14098:14229   */\n      tag_174\n      jump\t// in\n    tag_328:\n        /* \"#utility.yul\":14090:14229   */\n      swap1\n      pop\n        /* \"#utility.yul\":13817:14236   */\n      swap2\n      swap1\n      pop\n      jump\t// out\n        /* \"#utility.yul\":14242:14436   */\n    tag_87:\n        /* \"#utility.yul\":14282:14286   */\n      0x00\n        /* \"#utility.yul\":14302:14322   */\n      tag_330\n        /* \"#utility.yul\":14320:14321   */\n      dup3\n        /* \"#utility.yul\":14302:14322   */\n      tag_139\n      jump\t// in\n    tag_330:\n        /* \"#utility.yul\":14297:14322   */\n      swap2\n      pop\n        /* \"#utility.yul\":14336:14356   */\n      tag_331\n        /* \"#utility.yul\":14354:14355   */\n      dup4\n        /* \"#utility.yul\":14336:14356   */\n      tag_139\n      jump\t// in\n    tag_331:\n        /* \"#utility.yul\":14331:14356   */\n      swap3\n      pop\n        /* \"#utility.yul\":14380:14381   */\n      dup3\n        /* \"#utility.yul\":14377:14378   */\n      dup3\n        /* \"#utility.yul\":14373:14382   */\n      sub\n        /* \"#utility.yul\":14365:14382   */\n      swap1\n      pop\n        /* \"#utility.yul\":14404:14405   */\n      dup2\n        /* \"#utility.yul\":14398:14402   */\n      dup2\n        /* \"#utility.yul\":14395:14406   */\n      gt\n        /* \"#utility.yul\":14392:14429   */\n      iszero\n      tag_332\n      jumpi\n        /* \"#utility.yul\":14409:14427   */\n      tag_333\n      tag_155\n      jump\t// in\n    tag_333:\n        /* \"#utility.yul\":14392:14429   */\n    tag_332:\n        /* \"#utility.yul\":14242:14436   */\n      swap3\n      swap2\n      pop\n      pop\n      jump\t// out\n        /* \"#utility.yul\":14442:14622   */\n    tag_107:\n        /* \"#utility.yul\":14490:14567   */\n      0x4e487b7100000000000000000000000000000000000000000000000000000000\n        /* \"#utility.yul\":14487:14488   */\n      0x00\n        /* \"#utility.yul\":14480:14568   */\n      mstore\n        /* \"#utility.yul\":14587:14591   */\n      0x32\n        /* \"#utility.yul\":14584:14585   */\n      0x04\n        /* \"#utility.yul\":14577:14592   */\n      mstore\n        /* \"#utility.yul\":14611:14615   */\n      0x24\n        /* \"#utility.yul\":14608:14609   */\n      0x00\n        /* \"#utility.yul\":14601:14616   */\n      revert\n        /* \"#utility.yul\":14628:14808   */\n    tag_175:\n        /* \"#utility.yul\":14676:14753   */\n      0x4e487b7100000000000000000000000000000000000000000000000000000000\n        /* \"#utility.yul\":14673:14674   */\n      0x00\n        /* \"#utility.yul\":14666:14754   */\n      mstore\n        /* \"#utility.yul\":14773:14777   */\n      0x12\n        /* \"#utility.yul\":14770:14771   */\n      0x04\n        /* \"#utility.yul\":14763:14778   */\n      mstore\n        /* \"#utility.yul\":14797:14801   */\n      0x24\n        /* \"#utility.yul\":14794:14795   */\n      0x00\n        /* \"#utility.yul\":14787:14802   */\n      revert\n        /* \"#utility.yul\":14814:14990   */\n    tag_112:\n        /* \"#utility.yul\":14846:14847   */\n      0x00\n        /* \"#utility.yul\":14863:14883   */\n      tag_337\n        /* \"#utility.yul\":14881:14882   */\n      dup3\n        /* \"#utility.yul\":14863:14883   */\n      tag_139\n      jump\t// in\n    tag_337:\n        /* \"#utility.yul\":14858:14883   */\n      swap2\n      pop\n        /* \"#utility.yul\":14897:14917   */\n      tag_338\n        /* \"#utility.yul\":14915:14916   */\n      dup4\n        /* \"#utility.yul\":14897:14917   */\n      tag_139\n      jump\t// in\n    tag_338:\n        /* \"#utility.yul\":14892:14917   */\n      swap3\n      pop\n        /* \"#utility.yul\":14936:14937   */\n      dup3\n        /* \"#utility.yul\":14926:14961   */\n      tag_339\n      jumpi\n        /* \"#utility.yul\":14941:14959   */\n      tag_340\n      tag_175\n      jump\t// in\n    tag_340:\n        /* \"#utility.yul\":14926:14961   */\n    tag_339:\n        /* \"#utility.yul\":14982:14983   */\n      dup3\n        /* \"#utility.yul\":14979:14980   */\n      dup3\n        /* \"#utility.yul\":14975:14984   */\n      mod\n        /* \"#utility.yul\":14970:14984   */\n      swap1\n      pop\n        /* \"#utility.yul\":14814:14990   */\n      swap3\n      swap2\n      pop\n      pop\n      jump\t// out\n        /* \"#utility.yul\":14996:15181   */\n    tag_116:\n        /* \"#utility.yul\":15036:15037   */\n      0x00\n        /* \"#utility.yul\":15053:15073   */\n      tag_342\n        /* \"#utility.yul\":15071:15072   */\n      dup3\n        /* \"#utility.yul\":15053:15073   */\n      tag_139\n      jump\t// in\n    tag_342:\n        /* \"#utility.yul\":15048:15073   */\n      swap2\n      pop\n        /* \"#utility.yul\":15087:15107   */\n      tag_343\n        /* \"#utility.yul\":15105:15106   */\n      dup4\n        /* \"#utility.yul\":15087:15107   */\n      tag_139\n      jump\t// in\n    tag_343:\n        /* \"#utility.yul\":15082:15107   */\n      swap3\n      pop\n        /* \"#utility.yul\":15126:15127   */\n      dup3\n        /* \"#utility.yul\":15116:15151   */\n      tag_344\n      jumpi\n        /* \"#utility.yul\":15131:15149   */\n      tag_345\n      tag_175\n      jump\t// in\n    tag_345:\n        /* \"#utility.yul\":15116:15151   */\n    tag_344:\n        /* \"#utility.yul\":15173:15174   */\n      dup3\n        /* \"#utility.yul\":15170:15171   */\n      dup3\n        /* \"#utility.yul\":15166:15175   */\n      div\n        /* \"#utility.yul\":15161:15175   */\n      swap1\n      pop\n        /* \"#utility.yul\":14996:15181   */\n      swap3\n      swap2\n      pop\n      pop\n      jump\t// out\n\n    auxdata: 0xa2646970667358221220bed567dd28a325c860a9c3b2ed92fc41a9a2533ee72b3c8a6bf107a88a78434964736f6c634300081a0033\n}\n",
				"bytecode": {
					"linkReferences": {},
					"object": "6080604052348015600e575f80fd5b50335f806101000a81548173ffffffffffffffffffffffffffffffffffffffff021916908373ffffffffffffffffffffffffffffffffffffffff160217905550600333908060018154018082558091505060019003905f5260205f20015f9091909190916101000a81548173ffffffffffffffffffffffffffffffffffffffff021916908373ffffffffffffffffffffffffffffffffffffffff1602179055506113ab806100bb5f395ff3fe608060405234801561000f575f80fd5b506004361061007b575f3560e01c8063891903931161005957806389190393146100d5578063b3f98adc146100df578063c7f758a8146100fb578063cbff75cb1461012b5761007b565b806313af40351461007f57806341ec68701461009b57806346f81a87146100b9575b5f80fd5b61009960048036038101906100949190610b98565b61015b565b005b6100a36101f3565b6040516100b09190610cfe565b60405180910390f35b6100d360048036038101906100ce9190610da9565b61030a565b005b6100dd610489565b005b6100f960048036038101906100f49190610e3c565b610542565b005b61011560048036038101906101109190610e67565b61080f565b6040516101229190610cfe565b60405180910390f35b61014560048036038101906101409190610b98565b610926565b6040516101529190610ea1565b60405180910390f35b5f8054906101000a900473ffffffffffffffffffffffffffffffffffffffff1673ffffffffffffffffffffffffffffffffffffffff163373ffffffffffffffffffffffffffffffffffffffff16146101b1575f80fd5b805f806101000a81548173ffffffffffffffffffffffffffffffffffffffff021916908373ffffffffffffffffffffffffffffffffffffffff16021790555050565b6101fb610a59565b60025f60015481526020019081526020015f206040518060e00160405290815f8201805461022890610ee7565b80601f016020809104026020016040519081016040528092919081815260200182805461025490610ee7565b801561029f5780601f106102765761010080835404028352916020019161029f565b820191905f5260205f20905b81548152906001019060200180831161028257829003601f168201915b5050505050815260200160018201548152602001600282015481526020016003820154815260200160048201548152602001600582015f9054906101000a900460ff161515151581526020016005820160019054906101000a900460ff161515151581525050905090565b5f8054906101000a900473ffffffffffffffffffffffffffffffffffffffff1673ffffffffffffffffffffffffffffffffffffffff163373ffffffffffffffffffffffffffffffffffffffff1614610360575f80fd5b6001805f8282546103719190610f44565b925050819055506040518060e0016040528084848080601f0160208091040260200160405190810160405280939291908181526020018383808284375f81840152601f19601f8201169050808301925050505050505081526020015f81526020015f81526020015f81526020018281526020015f151581526020016001151581525060025f60015481526020019081526020015f205f820151815f0190816104199190611141565b506020820151816001015560408201518160020155606082015181600301556080820151816004015560a0820151816005015f6101000a81548160ff02191690831515021790555060c08201518160050160016101000a81548160ff021916908315150217905550905050505050565b5f8054906101000a900473ffffffffffffffffffffffffffffffffffffffff1673ffffffffffffffffffffffffffffffffffffffff163373ffffffffffffffffffffffffffffffffffffffff16146104df575f80fd5b6001151560025f60015481526020019081526020015f2060050160019054906101000a900460ff16151514610512575f80fd5b5f60025f60015481526020019081526020015f2060050160016101000a81548160ff021916908315150217905550565b6001151560025f60015481526020019081526020015f2060050160019054906101000a900460ff16151514610575575f80fd5b3361057f81610926565b156105bf576040517f08c379a00000000000000000000000000000000000000000000000000000000081526004016105b69061126a565b60405180910390fd5b5f60025f60015481526020019081526020015f2090505f8160030154826002015483600101546105ef9190610f44565b6105f99190610f44565b9050600333908060018154018082558091505060019003905f5260205f20015f9091909190916101000a81548173ffffffffffffffffffffffffffffffffffffffff021916908373ffffffffffffffffffffffffffffffffffffffff16021790555060018460ff16036106a8576001826001015f82825461067a9190610f44565b925050819055506106896109c8565b826005015f6101000a81548160ff02191690831515021790555061073f565b60028460ff16036106f5576001826002015f8282546106c79190610f44565b925050819055506106d66109c8565b826005015f6101000a81548160ff02191690831515021790555061073e565b5f8460ff160361073d576001826003015f8282546107139190610f44565b925050819055506107226109c8565b826005015f6101000a81548160ff0219169083151502179055505b5b5b60018183600401546107519190611288565b14801561077c575060018460ff16148061076e575060028460ff16145b8061077b57505f8460ff16145b5b15610809575f8260050160016101000a81548160ff02191690831515021790555060405180602001604052805f8054906101000a900473ffffffffffffffffffffffffffffffffffffffff1673ffffffffffffffffffffffffffffffffffffffff1673ffffffffffffffffffffffffffffffffffffffff168152506003906001610807929190610a94565b505b50505050565b610817610a59565b60025f8381526020019081526020015f206040518060e00160405290815f8201805461084290610ee7565b80601f016020809104026020016040519081016040528092919081815260200182805461086e90610ee7565b80156108b95780601f10610890576101008083540402835291602001916108b9565b820191905f5260205f20905b81548152906001019060200180831161089c57829003601f168201915b5050505050815260200160018201548152602001600282015481526020016003820154815260200160048201548152602001600582015f9054906101000a900460ff161515151581526020016005820160019054906101000a900460ff1615151515815250509050919050565b5f805f90505b6003805490508110156109be578273ffffffffffffffffffffffffffffffffffffffff1660038281548110610964576109636112bb565b5b905f5260205f20015f9054906101000a900473ffffffffffffffffffffffffffffffffffffffff1673ffffffffffffffffffffffffffffffffffffffff16036109b15760019150506109c3565b808060010191505061092c565b505f90505b919050565b5f8060025f60015481526020019081526020015f2090505f816001015490505f826002015490505f83600301549050600160028560030154610a0a9190611315565b03610a1f57600181610a1c9190610f44565b90505b600281610a2c9190611345565b90508082610a3a9190610f44565b831115610a4e576001945050505050610a56565b5f9450505050505b90565b6040518060e00160405280606081526020015f81526020015f81526020015f81526020015f81526020015f151581526020015f151581525090565b828054828255905f5260205f20908101928215610b0a579160200282015b82811115610b09578251825f6101000a81548173ffffffffffffffffffffffffffffffffffffffff021916908373ffffffffffffffffffffffffffffffffffffffff16021790555091602001919060010190610ab2565b5b509050610b179190610b1b565b5090565b5b80821115610b32575f815f905550600101610b1c565b5090565b5f80fd5b5f80fd5b5f73ffffffffffffffffffffffffffffffffffffffff82169050919050565b5f610b6782610b3e565b9050919050565b610b7781610b5d565b8114610b81575f80fd5b50565b5f81359050610b9281610b6e565b92915050565b5f60208284031215610bad57610bac610b36565b5b5f610bba84828501610b84565b91505092915050565b5f81519050919050565b5f82825260208201905092915050565b8281835e5f83830152505050565b5f601f19601f8301169050919050565b5f610c0582610bc3565b610c0f8185610bcd565b9350610c1f818560208601610bdd565b610c2881610beb565b840191505092915050565b5f819050919050565b610c4581610c33565b82525050565b5f8115159050919050565b610c5f81610c4b565b82525050565b5f60e083015f8301518482035f860152610c7f8282610bfb565b9150506020830151610c946020860182610c3c565b506040830151610ca76040860182610c3c565b506060830151610cba6060860182610c3c565b506080830151610ccd6080860182610c3c565b5060a0830151610ce060a0860182610c56565b5060c0830151610cf360c0860182610c56565b508091505092915050565b5f6020820190508181035f830152610d168184610c65565b905092915050565b5f80fd5b5f80fd5b5f80fd5b5f8083601f840112610d3f57610d3e610d1e565b5b8235905067ffffffffffffffff811115610d5c57610d5b610d22565b5b602083019150836001820283011115610d7857610d77610d26565b5b9250929050565b610d8881610c33565b8114610d92575f80fd5b50565b5f81359050610da381610d7f565b92915050565b5f805f60408486031215610dc057610dbf610b36565b5b5f84013567ffffffffffffffff811115610ddd57610ddc610b3a565b5b610de986828701610d2a565b93509350506020610dfc86828701610d95565b9150509250925092565b5f60ff82169050919050565b610e1b81610e06565b8114610e25575f80fd5b50565b5f81359050610e3681610e12565b92915050565b5f60208284031215610e5157610e50610b36565b5b5f610e5e84828501610e28565b91505092915050565b5f60208284031215610e7c57610e7b610b36565b5b5f610e8984828501610d95565b91505092915050565b610e9b81610c4b565b82525050565b5f602082019050610eb45f830184610e92565b92915050565b7f4e487b71000000000000000000000000000000000000000000000000000000005f52602260045260245ffd5b5f6002820490506001821680610efe57607f821691505b602082108103610f1157610f10610eba565b5b50919050565b7f4e487b71000000000000000000000000000000000000000000000000000000005f52601160045260245ffd5b5f610f4e82610c33565b9150610f5983610c33565b9250828201905080821115610f7157610f70610f17565b5b92915050565b7f4e487b71000000000000000000000000000000000000000000000000000000005f52604160045260245ffd5b5f819050815f5260205f209050919050565b5f6020601f8301049050919050565b5f82821b905092915050565b5f600883026110007fffffffffffffffffffffffffffffffffffffffffffffffffffffffffffffffff82610fc5565b61100a8683610fc5565b95508019841693508086168417925050509392505050565b5f819050919050565b5f61104561104061103b84610c33565b611022565b610c33565b9050919050565b5f819050919050565b61105e8361102b565b61107261106a8261104c565b848454610fd1565b825550505050565b5f90565b61108661107a565b611091818484611055565b505050565b5b818110156110b4576110a95f8261107e565b600181019050611097565b5050565b601f8211156110f9576110ca81610fa4565b6110d384610fb6565b810160208510156110e2578190505b6110f66110ee85610fb6565b830182611096565b50505b505050565b5f82821c905092915050565b5f6111195f19846008026110fe565b1980831691505092915050565b5f611131838361110a565b9150826002028217905092915050565b61114a82610bc3565b67ffffffffffffffff81111561116357611162610f77565b5b61116d8254610ee7565b6111788282856110b8565b5f60209050601f8311600181146111a9575f8415611197578287015190505b6111a18582611126565b865550611208565b601f1984166111b786610fa4565b5f5b828110156111de578489015182556001820191506020850194506020810190506111b9565b868310156111fb57848901516111f7601f89168261110a565b8355505b6001600288020188555050505b505050505050565b5f82825260208201905092915050565b7f416464726573732068617320616c726561647920766f746564000000000000005f82015250565b5f611254601983611210565b915061125f82611220565b602082019050919050565b5f6020820190508181035f83015261128181611248565b9050919050565b5f61129282610c33565b915061129d83610c33565b92508282039050818111156112b5576112b4610f17565b5b92915050565b7f4e487b71000000000000000000000000000000000000000000000000000000005f52603260045260245ffd5b7f4e487b71000000000000000000000000000000000000000000000000000000005f52601260045260245ffd5b5f61131f82610c33565b915061132a83610c33565b92508261133a576113396112e8565b5b828206905092915050565b5f61134f82610c33565b915061135a83610c33565b92508261136a576113696112e8565b5b82820490509291505056fea2646970667358221220bed567dd28a325c860a9c3b2ed92fc41a9a2533ee72b3c8a6bf107a88a78434964736f6c634300081a0033",
					"opcodes": "PUSH1 0x80 PUSH1 0x40 MSTORE CALLVALUE DUP1 ISZERO PUSH1 0xE JUMPI PUSH0 DUP1 REVERT JUMPDEST POP CALLER PUSH0 DUP1 PUSH2 0x100 EXP DUP2 SLOAD DUP2 PUSH20 0xFFFFFFFFFFFFFFFFFFFFFFFFFFFFFFFFFFFFFFFF MUL NOT AND SWAP1 DUP4 PUSH20 0xFFFFFFFFFFFFFFFFFFFFFFFFFFFFFFFFFFFFFFFF AND MUL OR SWAP1 SSTORE POP PUSH1 0x3 CALLER SWAP1 DUP1 PUSH1 0x1 DUP2 SLOAD ADD DUP1 DUP3 SSTORE DUP1 SWAP2 POP POP PUSH1 0x1 SWAP1 SUB SWAP1 PUSH0 MSTORE PUSH1 0x20 PUSH0 KECCAK256 ADD PUSH0 SWAP1 SWAP2 SWAP1 SWAP2 SWAP1 SWAP2 PUSH2 0x100 EXP DUP2 SLOAD DUP2 PUSH20 0xFFFFFFFFFFFFFFFFFFFFFFFFFFFFFFFFFFFFFFFF MUL NOT AND SWAP1 DUP4 PUSH20 0xFFFFFFFFFFFFFFFFFFFFFFFFFFFFFFFFFFFFFFFF AND MUL OR SWAP1 SSTORE POP PUSH2 0x13AB DUP1 PUSH2 0xBB PUSH0 CODECOPY PUSH0 RETURN INVALID PUSH1 0x80 PUSH1 0x40 MSTORE CALLVALUE DUP1 ISZERO PUSH2 0xF JUMPI PUSH0 DUP1 REVERT JUMPDEST POP PUSH1 0x4 CALLDATASIZE LT PUSH2 0x7B JUMPI PUSH0 CALLDATALOAD PUSH1 0xE0 SHR DUP1 PUSH4 0x89190393 GT PUSH2 0x59 JUMPI DUP1 PUSH4 0x89190393 EQ PUSH2 0xD5 JUMPI DUP1 PUSH4 0xB3F98ADC EQ PUSH2 0xDF JUMPI DUP1 PUSH4 0xC7F758A8 EQ PUSH2 0xFB JUMPI DUP1 PUSH4 0xCBFF75CB EQ PUSH2 0x12B JUMPI PUSH2 0x7B JUMP JUMPDEST DUP1 PUSH4 0x13AF4035 EQ PUSH2 0x7F JUMPI DUP1 PUSH4 0x41EC6870 EQ PUSH2 0x9B JUMPI DUP1 PUSH4 0x46F81A87 EQ PUSH2 0xB9 JUMPI JUMPDEST PUSH0 DUP1 REVERT JUMPDEST PUSH2 0x99 PUSH1 0x4 DUP1 CALLDATASIZE SUB DUP2 ADD SWAP1 PUSH2 0x94 SWAP2 SWAP1 PUSH2 0xB98 JUMP JUMPDEST PUSH2 0x15B JUMP JUMPDEST STOP JUMPDEST PUSH2 0xA3 PUSH2 0x1F3 JUMP JUMPDEST PUSH1 0x40 MLOAD PUSH2 0xB0 SWAP2 SWAP1 PUSH2 0xCFE JUMP JUMPDEST PUSH1 0x40 MLOAD DUP1 SWAP2 SUB SWAP1 RETURN JUMPDEST PUSH2 0xD3 PUSH1 0x4 DUP1 CALLDATASIZE SUB DUP2 ADD SWAP1 PUSH2 0xCE SWAP2 SWAP1 PUSH2 0xDA9 JUMP JUMPDEST PUSH2 0x30A JUMP JUMPDEST STOP JUMPDEST PUSH2 0xDD PUSH2 0x489 JUMP JUMPDEST STOP JUMPDEST PUSH2 0xF9 PUSH1 0x4 DUP1 CALLDATASIZE SUB DUP2 ADD SWAP1 PUSH2 0xF4 SWAP2 SWAP1 PUSH2 0xE3C JUMP JUMPDEST PUSH2 0x542 JUMP JUMPDEST STOP JUMPDEST PUSH2 0x115 PUSH1 0x4 DUP1 CALLDATASIZE SUB DUP2 ADD SWAP1 PUSH2 0x110 SWAP2 SWAP1 PUSH2 0xE67 JUMP JUMPDEST PUSH2 0x80F JUMP JUMPDEST PUSH1 0x40 MLOAD PUSH2 0x122 SWAP2 SWAP1 PUSH2 0xCFE JUMP JUMPDEST PUSH1 0x40 MLOAD DUP1 SWAP2 SUB SWAP1 RETURN JUMPDEST PUSH2 0x145 PUSH1 0x4 DUP1 CALLDATASIZE SUB DUP2 ADD SWAP1 PUSH2 0x140 SWAP2 SWAP1 PUSH2 0xB98 JUMP JUMPDEST PUSH2 0x926 JUMP JUMPDEST PUSH1 0x40 MLOAD PUSH2 0x152 SWAP2 SWAP1 PUSH2 0xEA1 JUMP JUMPDEST PUSH1 0x40 MLOAD DUP1 SWAP2 SUB SWAP1 RETURN JUMPDEST PUSH0 DUP1 SLOAD SWAP1 PUSH2 0x100 EXP SWAP1 DIV PUSH20 0xFFFFFFFFFFFFFFFFFFFFFFFFFFFFFFFFFFFFFFFF AND PUSH20 0xFFFFFFFFFFFFFFFFFFFFFFFFFFFFFFFFFFFFFFFF AND CALLER PUSH20 0xFFFFFFFFFFFFFFFFFFFFFFFFFFFFFFFFFFFFFFFF AND EQ PUSH2 0x1B1 JUMPI PUSH0 DUP1 REVERT JUMPDEST DUP1 PUSH0 DUP1 PUSH2 0x100 EXP DUP2 SLOAD DUP2 PUSH20 0xFFFFFFFFFFFFFFFFFFFFFFFFFFFFFFFFFFFFFFFF MUL NOT AND SWAP1 DUP4 PUSH20 0xFFFFFFFFFFFFFFFFFFFFFFFFFFFFFFFFFFFFFFFF AND MUL OR SWAP1 SSTORE POP POP JUMP JUMPDEST PUSH2 0x1FB PUSH2 0xA59 JUMP JUMPDEST PUSH1 0x2 PUSH0 PUSH1 0x1 SLOAD DUP2 MSTORE PUSH1 0x20 ADD SWAP1 DUP2 MSTORE PUSH1 0x20 ADD PUSH0 KECCAK256 PUSH1 0x40 MLOAD DUP1 PUSH1 0xE0 ADD PUSH1 0x40 MSTORE SWAP1 DUP2 PUSH0 DUP3 ADD DUP1 SLOAD PUSH2 0x228 SWAP1 PUSH2 0xEE7 JUMP JUMPDEST DUP1 PUSH1 0x1F ADD PUSH1 0x20 DUP1 SWAP2 DIV MUL PUSH1 0x20 ADD PUSH1 0x40 MLOAD SWAP1 DUP2 ADD PUSH1 0x40 MSTORE DUP1 SWAP3 SWAP2 SWAP1 DUP2 DUP2 MSTORE PUSH1 0x20 ADD DUP3 DUP1 SLOAD PUSH2 0x254 SWAP1 PUSH2 0xEE7 JUMP JUMPDEST DUP1 ISZERO PUSH2 0x29F JUMPI DUP1 PUSH1 0x1F LT PUSH2 0x276 JUMPI PUSH2 0x100 DUP1 DUP4 SLOAD DIV MUL DUP4 MSTORE SWAP2 PUSH1 0x20 ADD SWAP2 PUSH2 0x29F JUMP JUMPDEST DUP3 ADD SWAP2 SWAP1 PUSH0 MSTORE PUSH1 0x20 PUSH0 KECCAK256 SWAP1 JUMPDEST DUP2 SLOAD DUP2 MSTORE SWAP1 PUSH1 0x1 ADD SWAP1 PUSH1 0x20 ADD DUP1 DUP4 GT PUSH2 0x282 JUMPI DUP3 SWAP1 SUB PUSH1 0x1F AND DUP3 ADD SWAP2 JUMPDEST POP POP POP POP POP DUP2 MSTORE PUSH1 0x20 ADD PUSH1 0x1 DUP3 ADD SLOAD DUP2 MSTORE PUSH1 0x20 ADD PUSH1 0x2 DUP3 ADD SLOAD DUP2 MSTORE PUSH1 0x20 ADD PUSH1 0x3 DUP3 ADD SLOAD DUP2 MSTORE PUSH1 0x20 ADD PUSH1 0x4 DUP3 ADD SLOAD DUP2 MSTORE PUSH1 0x20 ADD PUSH1 0x5 DUP3 ADD PUSH0 SWAP1 SLOAD SWAP1 PUSH2 0x100 EXP SWAP1 DIV PUSH1 0xFF AND ISZERO ISZERO ISZERO ISZERO DUP2 MSTORE PUSH1 0x20 ADD PUSH1 0x5 DUP3 ADD PUSH1 0x1 SWAP1 SLOAD SWAP1 PUSH2 0x100 EXP SWAP1 DIV PUSH1 0xFF AND ISZERO ISZERO ISZERO ISZERO DUP2 MSTORE POP POP SWAP1 POP SWAP1 JUMP JUMPDEST PUSH0 DUP1 SLOAD SWAP1 PUSH2 0x100 EXP SWAP1 DIV PUSH20 0xFFFFFFFFFFFFFFFFFFFFFFFFFFFFFFFFFFFFFFFF AND PUSH20 0xFFFFFFFFFFFFFFFFFFFFFFFFFFFFFFFFFFFFFFFF AND CALLER PUSH20 0xFFFFFFFFFFFFFFFFFFFFFFFFFFFFFFFFFFFFFFFF AND EQ PUSH2 0x360 JUMPI PUSH0 DUP1 REVERT JUMPDEST PUSH1 0x1 DUP1 PUSH0 DUP3 DUP3 SLOAD PUSH2 0x371 SWAP2 SWAP1 PUSH2 0xF44 JUMP JUMPDEST SWAP3 POP POP DUP2 SWAP1 SSTORE POP PUSH1 0x40 MLOAD DUP1 PUSH1 0xE0 ADD PUSH1 0x40 MSTORE DUP1 DUP5 DUP5 DUP1 DUP1 PUSH1 0x1F ADD PUSH1 0x20 DUP1 SWAP2 DIV MUL PUSH1 0x20 ADD PUSH1 0x40 MLOAD SWAP1 DUP2 ADD PUSH1 0x40 MSTORE DUP1 SWAP4 SWAP3 SWAP2 SWAP1 DUP2 DUP2 MSTORE PUSH1 0x20 ADD DUP4 DUP4 DUP1 DUP3 DUP5 CALLDATACOPY PUSH0 DUP2 DUP5 ADD MSTORE PUSH1 0x1F NOT PUSH1 0x1F DUP3 ADD AND SWAP1 POP DUP1 DUP4 ADD SWAP3 POP POP POP POP POP POP POP DUP2 MSTORE PUSH1 0x20 ADD PUSH0 DUP2 MSTORE PUSH1 0x20 ADD PUSH0 DUP2 MSTORE PUSH1 0x20 ADD PUSH0 DUP2 MSTORE PUSH1 0x20 ADD DUP3 DUP2 MSTORE PUSH1 0x20 ADD PUSH0 ISZERO ISZERO DUP2 MSTORE PUSH1 0x20 ADD PUSH1 0x1 ISZERO ISZERO DUP2 MSTORE POP PUSH1 0x2 PUSH0 PUSH1 0x1 SLOAD DUP2 MSTORE PUSH1 0x20 ADD SWAP1 DUP2 MSTORE PUSH1 0x20 ADD PUSH0 KECCAK256 PUSH0 DUP3 ADD MLOAD DUP2 PUSH0 ADD SWAP1 DUP2 PUSH2 0x419 SWAP2 SWAP1 PUSH2 0x1141 JUMP JUMPDEST POP PUSH1 0x20 DUP3 ADD MLOAD DUP2 PUSH1 0x1 ADD SSTORE PUSH1 0x40 DUP3 ADD MLOAD DUP2 PUSH1 0x2 ADD SSTORE PUSH1 0x60 DUP3 ADD MLOAD DUP2 PUSH1 0x3 ADD SSTORE PUSH1 0x80 DUP3 ADD MLOAD DUP2 PUSH1 0x4 ADD SSTORE PUSH1 0xA0 DUP3 ADD MLOAD DUP2 PUSH1 0x5 ADD PUSH0 PUSH2 0x100 EXP DUP2 SLOAD DUP2 PUSH1 0xFF MUL NOT AND SWAP1 DUP4 ISZERO ISZERO MUL OR SWAP1 SSTORE POP PUSH1 0xC0 DUP3 ADD MLOAD DUP2 PUSH1 0x5 ADD PUSH1 0x1 PUSH2 0x100 EXP DUP2 SLOAD DUP2 PUSH1 0xFF MUL NOT AND SWAP1 DUP4 ISZERO ISZERO MUL OR SWAP1 SSTORE POP SWAP1 POP POP POP POP POP JUMP JUMPDEST PUSH0 DUP1 SLOAD SWAP1 PUSH2 0x100 EXP SWAP1 DIV PUSH20 0xFFFFFFFFFFFFFFFFFFFFFFFFFFFFFFFFFFFFFFFF AND PUSH20 0xFFFFFFFFFFFFFFFFFFFFFFFFFFFFFFFFFFFFFFFF AND CALLER PUSH20 0xFFFFFFFFFFFFFFFFFFFFFFFFFFFFFFFFFFFFFFFF AND EQ PUSH2 0x4DF JUMPI PUSH0 DUP1 REVERT JUMPDEST PUSH1 0x1 ISZERO ISZERO PUSH1 0x2 PUSH0 PUSH1 0x1 SLOAD DUP2 MSTORE PUSH1 0x20 ADD SWAP1 DUP2 MSTORE PUSH1 0x20 ADD PUSH0 KECCAK256 PUSH1 0x5 ADD PUSH1 0x1 SWAP1 SLOAD SWAP1 PUSH2 0x100 EXP SWAP1 DIV PUSH1 0xFF AND ISZERO ISZERO EQ PUSH2 0x512 JUMPI PUSH0 DUP1 REVERT JUMPDEST PUSH0 PUSH1 0x2 PUSH0 PUSH1 0x1 SLOAD DUP2 MSTORE PUSH1 0x20 ADD SWAP1 DUP2 MSTORE PUSH1 0x20 ADD PUSH0 KECCAK256 PUSH1 0x5 ADD PUSH1 0x1 PUSH2 0x100 EXP DUP2 SLOAD DUP2 PUSH1 0xFF MUL NOT AND SWAP1 DUP4 ISZERO ISZERO MUL OR SWAP1 SSTORE POP JUMP JUMPDEST PUSH1 0x1 ISZERO ISZERO PUSH1 0x2 PUSH0 PUSH1 0x1 SLOAD DUP2 MSTORE PUSH1 0x20 ADD SWAP1 DUP2 MSTORE PUSH1 0x20 ADD PUSH0 KECCAK256 PUSH1 0x5 ADD PUSH1 0x1 SWAP1 SLOAD SWAP1 PUSH2 0x100 EXP SWAP1 DIV PUSH1 0xFF AND ISZERO ISZERO EQ PUSH2 0x575 JUMPI PUSH0 DUP1 REVERT JUMPDEST CALLER PUSH2 0x57F DUP2 PUSH2 0x926 JUMP JUMPDEST ISZERO PUSH2 0x5BF JUMPI PUSH1 0x40 MLOAD PUSH32 0x8C379A000000000000000000000000000000000000000000000000000000000 DUP2 MSTORE PUSH1 0x4 ADD PUSH2 0x5B6 SWAP1 PUSH2 0x126A JUMP JUMPDEST PUSH1 0x40 MLOAD DUP1 SWAP2 SUB SWAP1 REVERT JUMPDEST PUSH0 PUSH1 0x2 PUSH0 PUSH1 0x1 SLOAD DUP2 MSTORE PUSH1 0x20 ADD SWAP1 DUP2 MSTORE PUSH1 0x20 ADD PUSH0 KECCAK256 SWAP1 POP PUSH0 DUP2 PUSH1 0x3 ADD SLOAD DUP3 PUSH1 0x2 ADD SLOAD DUP4 PUSH1 0x1 ADD SLOAD PUSH2 0x5EF SWAP2 SWAP1 PUSH2 0xF44 JUMP JUMPDEST PUSH2 0x5F9 SWAP2 SWAP1 PUSH2 0xF44 JUMP JUMPDEST SWAP1 POP PUSH1 0x3 CALLER SWAP1 DUP1 PUSH1 0x1 DUP2 SLOAD ADD DUP1 DUP3 SSTORE DUP1 SWAP2 POP POP PUSH1 0x1 SWAP1 SUB SWAP1 PUSH0 MSTORE PUSH1 0x20 PUSH0 KECCAK256 ADD PUSH0 SWAP1 SWAP2 SWAP1 SWAP2 SWAP1 SWAP2 PUSH2 0x100 EXP DUP2 SLOAD DUP2 PUSH20 0xFFFFFFFFFFFFFFFFFFFFFFFFFFFFFFFFFFFFFFFF MUL NOT AND SWAP1 DUP4 PUSH20 0xFFFFFFFFFFFFFFFFFFFFFFFFFFFFFFFFFFFFFFFF AND MUL OR SWAP1 SSTORE POP PUSH1 0x1 DUP5 PUSH1 0xFF AND SUB PUSH2 0x6A8 JUMPI PUSH1 0x1 DUP3 PUSH1 0x1 ADD PUSH0 DUP3 DUP3 SLOAD PUSH2 0x67A SWAP2 SWAP1 PUSH2 0xF44 JUMP JUMPDEST SWAP3 POP POP DUP2 SWAP1 SSTORE POP PUSH2 0x689 PUSH2 0x9C8 JUMP JUMPDEST DUP3 PUSH1 0x5 ADD PUSH0 PUSH2 0x100 EXP DUP2 SLOAD DUP2 PUSH1 0xFF MUL NOT AND SWAP1 DUP4 ISZERO ISZERO MUL OR SWAP1 SSTORE POP PUSH2 0x73F JUMP JUMPDEST PUSH1 0x2 DUP5 PUSH1 0xFF AND SUB PUSH2 0x6F5 JUMPI PUSH1 0x1 DUP3 PUSH1 0x2 ADD PUSH0 DUP3 DUP3 SLOAD PUSH2 0x6C7 SWAP2 SWAP1 PUSH2 0xF44 JUMP JUMPDEST SWAP3 POP POP DUP2 SWAP1 SSTORE POP PUSH2 0x6D6 PUSH2 0x9C8 JUMP JUMPDEST DUP3 PUSH1 0x5 ADD PUSH0 PUSH2 0x100 EXP DUP2 SLOAD DUP2 PUSH1 0xFF MUL NOT AND SWAP1 DUP4 ISZERO ISZERO MUL OR SWAP1 SSTORE POP PUSH2 0x73E JUMP JUMPDEST PUSH0 DUP5 PUSH1 0xFF AND SUB PUSH2 0x73D JUMPI PUSH1 0x1 DUP3 PUSH1 0x3 ADD PUSH0 DUP3 DUP3 SLOAD PUSH2 0x713 SWAP2 SWAP1 PUSH2 0xF44 JUMP JUMPDEST SWAP3 POP POP DUP2 SWAP1 SSTORE POP PUSH2 0x722 PUSH2 0x9C8 JUMP JUMPDEST DUP3 PUSH1 0x5 ADD PUSH0 PUSH2 0x100 EXP DUP2 SLOAD DUP2 PUSH1 0xFF MUL NOT AND SWAP1 DUP4 ISZERO ISZERO MUL OR SWAP1 SSTORE POP JUMPDEST JUMPDEST JUMPDEST PUSH1 0x1 DUP2 DUP4 PUSH1 0x4 ADD SLOAD PUSH2 0x751 SWAP2 SWAP1 PUSH2 0x1288 JUMP JUMPDEST EQ DUP1 ISZERO PUSH2 0x77C JUMPI POP PUSH1 0x1 DUP5 PUSH1 0xFF AND EQ DUP1 PUSH2 0x76E JUMPI POP PUSH1 0x2 DUP5 PUSH1 0xFF AND EQ JUMPDEST DUP1 PUSH2 0x77B JUMPI POP PUSH0 DUP5 PUSH1 0xFF AND EQ JUMPDEST JUMPDEST ISZERO PUSH2 0x809 JUMPI PUSH0 DUP3 PUSH1 0x5 ADD PUSH1 0x1 PUSH2 0x100 EXP DUP2 SLOAD DUP2 PUSH1 0xFF MUL NOT AND SWAP1 DUP4 ISZERO ISZERO MUL OR SWAP1 SSTORE POP PUSH1 0x40 MLOAD DUP1 PUSH1 0x20 ADD PUSH1 0x40 MSTORE DUP1 PUSH0 DUP1 SLOAD SWAP1 PUSH2 0x100 EXP SWAP1 DIV PUSH20 0xFFFFFFFFFFFFFFFFFFFFFFFFFFFFFFFFFFFFFFFF AND PUSH20 0xFFFFFFFFFFFFFFFFFFFFFFFFFFFFFFFFFFFFFFFF AND PUSH20 0xFFFFFFFFFFFFFFFFFFFFFFFFFFFFFFFFFFFFFFFF AND DUP2 MSTORE POP PUSH1 0x3 SWAP1 PUSH1 0x1 PUSH2 0x807 SWAP3 SWAP2 SWAP1 PUSH2 0xA94 JUMP JUMPDEST POP JUMPDEST POP POP POP POP JUMP JUMPDEST PUSH2 0x817 PUSH2 0xA59 JUMP JUMPDEST PUSH1 0x2 PUSH0 DUP4 DUP2 MSTORE PUSH1 0x20 ADD SWAP1 DUP2 MSTORE PUSH1 0x20 ADD PUSH0 KECCAK256 PUSH1 0x40 MLOAD DUP1 PUSH1 0xE0 ADD PUSH1 0x40 MSTORE SWAP1 DUP2 PUSH0 DUP3 ADD DUP1 SLOAD PUSH2 0x842 SWAP1 PUSH2 0xEE7 JUMP JUMPDEST DUP1 PUSH1 0x1F ADD PUSH1 0x20 DUP1 SWAP2 DIV MUL PUSH1 0x20 ADD PUSH1 0x40 MLOAD SWAP1 DUP2 ADD PUSH1 0x40 MSTORE DUP1 SWAP3 SWAP2 SWAP1 DUP2 DUP2 MSTORE PUSH1 0x20 ADD DUP3 DUP1 SLOAD PUSH2 0x86E SWAP1 PUSH2 0xEE7 JUMP JUMPDEST DUP1 ISZERO PUSH2 0x8B9 JUMPI DUP1 PUSH1 0x1F LT PUSH2 0x890 JUMPI PUSH2 0x100 DUP1 DUP4 SLOAD DIV MUL DUP4 MSTORE SWAP2 PUSH1 0x20 ADD SWAP2 PUSH2 0x8B9 JUMP JUMPDEST DUP3 ADD SWAP2 SWAP1 PUSH0 MSTORE PUSH1 0x20 PUSH0 KECCAK256 SWAP1 JUMPDEST DUP2 SLOAD DUP2 MSTORE SWAP1 PUSH1 0x1 ADD SWAP1 PUSH1 0x20 ADD DUP1 DUP4 GT PUSH2 0x89C JUMPI DUP3 SWAP1 SUB PUSH1 0x1F AND DUP3 ADD SWAP2 JUMPDEST POP POP POP POP POP DUP2 MSTORE PUSH1 0x20 ADD PUSH1 0x1 DUP3 ADD SLOAD DUP2 MSTORE PUSH1 0x20 ADD PUSH1 0x2 DUP3 ADD SLOAD DUP2 MSTORE PUSH1 0x20 ADD PUSH1 0x3 DUP3 ADD SLOAD DUP2 MSTORE PUSH1 0x20 ADD PUSH1 0x4 DUP3 ADD SLOAD DUP2 MSTORE PUSH1 0x20 ADD PUSH1 0x5 DUP3 ADD PUSH0 SWAP1 SLOAD SWAP1 PUSH2 0x100 EXP SWAP1 DIV PUSH1 0xFF AND ISZERO ISZERO ISZERO ISZERO DUP2 MSTORE PUSH1 0x20 ADD PUSH1 0x5 DUP3 ADD PUSH1 0x1 SWAP1 SLOAD SWAP1 PUSH2 0x100 EXP SWAP1 DIV PUSH1 0xFF AND ISZERO ISZERO ISZERO ISZERO DUP2 MSTORE POP POP SWAP1 POP SWAP2 SWAP1 POP JUMP JUMPDEST PUSH0 DUP1 PUSH0 SWAP1 POP JUMPDEST PUSH1 0x3 DUP1 SLOAD SWAP1 POP DUP2 LT ISZERO PUSH2 0x9BE JUMPI DUP3 PUSH20 0xFFFFFFFFFFFFFFFFFFFFFFFFFFFFFFFFFFFFFFFF AND PUSH1 0x3 DUP3 DUP2 SLOAD DUP2 LT PUSH2 0x964 JUMPI PUSH2 0x963 PUSH2 0x12BB JUMP JUMPDEST JUMPDEST SWAP1 PUSH0 MSTORE PUSH1 0x20 PUSH0 KECCAK256 ADD PUSH0 SWAP1 SLOAD SWAP1 PUSH2 0x100 EXP SWAP1 DIV PUSH20 0xFFFFFFFFFFFFFFFFFFFFFFFFFFFFFFFFFFFFFFFF AND PUSH20 0xFFFFFFFFFFFFFFFFFFFFFFFFFFFFFFFFFFFFFFFF AND SUB PUSH2 0x9B1 JUMPI PUSH1 0x1 SWAP2 POP POP PUSH2 0x9C3 JUMP JUMPDEST DUP1 DUP1 PUSH1 0x1 ADD SWAP2 POP POP PUSH2 0x92C JUMP JUMPDEST POP PUSH0 SWAP1 POP JUMPDEST SWAP2 SWAP1 POP JUMP JUMPDEST PUSH0 DUP1 PUSH1 0x2 PUSH0 PUSH1 0x1 SLOAD DUP2 MSTORE PUSH1 0x20 ADD SWAP1 DUP2 MSTORE PUSH1 0x20 ADD PUSH0 KECCAK256 SWAP1 POP PUSH0 DUP2 PUSH1 0x1 ADD SLOAD SWAP1 POP PUSH0 DUP3 PUSH1 0x2 ADD SLOAD SWAP1 POP PUSH0 DUP4 PUSH1 0x3 ADD SLOAD SWAP1 POP PUSH1 0x1 PUSH1 0x2 DUP6 PUSH1 0x3 ADD SLOAD PUSH2 0xA0A SWAP2 SWAP1 PUSH2 0x1315 JUMP JUMPDEST SUB PUSH2 0xA1F JUMPI PUSH1 0x1 DUP2 PUSH2 0xA1C SWAP2 SWAP1 PUSH2 0xF44 JUMP JUMPDEST SWAP1 POP JUMPDEST PUSH1 0x2 DUP2 PUSH2 0xA2C SWAP2 SWAP1 PUSH2 0x1345 JUMP JUMPDEST SWAP1 POP DUP1 DUP3 PUSH2 0xA3A SWAP2 SWAP1 PUSH2 0xF44 JUMP JUMPDEST DUP4 GT ISZERO PUSH2 0xA4E JUMPI PUSH1 0x1 SWAP5 POP POP POP POP POP PUSH2 0xA56 JUMP JUMPDEST PUSH0 SWAP5 POP POP POP POP POP JUMPDEST SWAP1 JUMP JUMPDEST PUSH1 0x40 MLOAD DUP1 PUSH1 0xE0 ADD PUSH1 0x40 MSTORE DUP1 PUSH1 0x60 DUP2 MSTORE PUSH1 0x20 ADD PUSH0 DUP2 MSTORE PUSH1 0x20 ADD PUSH0 DUP2 MSTORE PUSH1 0x20 ADD PUSH0 DUP2 MSTORE PUSH1 0x20 ADD PUSH0 DUP2 MSTORE PUSH1 0x20 ADD PUSH0 ISZERO ISZERO DUP2 MSTORE PUSH1 0x20 ADD PUSH0 ISZERO ISZERO DUP2 MSTORE POP SWAP1 JUMP JUMPDEST DUP3 DUP1 SLOAD DUP3 DUP3 SSTORE SWAP1 PUSH0 MSTORE PUSH1 0x20 PUSH0 KECCAK256 SWAP1 DUP2 ADD SWAP3 DUP3 ISZERO PUSH2 0xB0A JUMPI SWAP2 PUSH1 0x20 MUL DUP3 ADD JUMPDEST DUP3 DUP2 GT ISZERO PUSH2 0xB09 JUMPI DUP3 MLOAD DUP3 PUSH0 PUSH2 0x100 EXP DUP2 SLOAD DUP2 PUSH20 0xFFFFFFFFFFFFFFFFFFFFFFFFFFFFFFFFFFFFFFFF MUL NOT AND SWAP1 DUP4 PUSH20 0xFFFFFFFFFFFFFFFFFFFFFFFFFFFFFFFFFFFFFFFF AND MUL OR SWAP1 SSTORE POP SWAP2 PUSH1 0x20 ADD SWAP2 SWAP1 PUSH1 0x1 ADD SWAP1 PUSH2 0xAB2 JUMP JUMPDEST JUMPDEST POP SWAP1 POP PUSH2 0xB17 SWAP2 SWAP1 PUSH2 0xB1B JUMP JUMPDEST POP SWAP1 JUMP JUMPDEST JUMPDEST DUP1 DUP3 GT ISZERO PUSH2 0xB32 JUMPI PUSH0 DUP2 PUSH0 SWAP1 SSTORE POP PUSH1 0x1 ADD PUSH2 0xB1C JUMP JUMPDEST POP SWAP1 JUMP JUMPDEST PUSH0 DUP1 REVERT JUMPDEST PUSH0 DUP1 REVERT JUMPDEST PUSH0 PUSH20 0xFFFFFFFFFFFFFFFFFFFFFFFFFFFFFFFFFFFFFFFF DUP3 AND SWAP1 POP SWAP2 SWAP1 POP JUMP JUMPDEST PUSH0 PUSH2 0xB67 DUP3 PUSH2 0xB3E JUMP JUMPDEST SWAP1 POP SWAP2 SWAP1 POP JUMP JUMPDEST PUSH2 0xB77 DUP2 PUSH2 0xB5D JUMP JUMPDEST DUP2 EQ PUSH2 0xB81 JUMPI PUSH0 DUP1 REVERT JUMPDEST POP JUMP JUMPDEST PUSH0 DUP2 CALLDATALOAD SWAP1 POP PUSH2 0xB92 DUP2 PUSH2 0xB6E JUMP JUMPDEST SWAP3 SWAP2 POP POP JUMP JUMPDEST PUSH0 PUSH1 0x20 DUP3 DUP5 SUB SLT ISZERO PUSH2 0xBAD JUMPI PUSH2 0xBAC PUSH2 0xB36 JUMP JUMPDEST JUMPDEST PUSH0 PUSH2 0xBBA DUP5 DUP3 DUP6 ADD PUSH2 0xB84 JUMP JUMPDEST SWAP2 POP POP SWAP3 SWAP2 POP POP JUMP JUMPDEST PUSH0 DUP2 MLOAD SWAP1 POP SWAP2 SWAP1 POP JUMP JUMPDEST PUSH0 DUP3 DUP3 MSTORE PUSH1 0x20 DUP3 ADD SWAP1 POP SWAP3 SWAP2 POP POP JUMP JUMPDEST DUP3 DUP2 DUP4 MCOPY PUSH0 DUP4 DUP4 ADD MSTORE POP POP POP JUMP JUMPDEST PUSH0 PUSH1 0x1F NOT PUSH1 0x1F DUP4 ADD AND SWAP1 POP SWAP2 SWAP1 POP JUMP JUMPDEST PUSH0 PUSH2 0xC05 DUP3 PUSH2 0xBC3 JUMP JUMPDEST PUSH2 0xC0F DUP2 DUP6 PUSH2 0xBCD JUMP JUMPDEST SWAP4 POP PUSH2 0xC1F DUP2 DUP6 PUSH1 0x20 DUP7 ADD PUSH2 0xBDD JUMP JUMPDEST PUSH2 0xC28 DUP2 PUSH2 0xBEB JUMP JUMPDEST DUP5 ADD SWAP2 POP POP SWAP3 SWAP2 POP POP JUMP JUMPDEST PUSH0 DUP2 SWAP1 POP SWAP2 SWAP1 POP JUMP JUMPDEST PUSH2 0xC45 DUP2 PUSH2 0xC33 JUMP JUMPDEST DUP3 MSTORE POP POP JUMP JUMPDEST PUSH0 DUP2 ISZERO ISZERO SWAP1 POP SWAP2 SWAP1 POP JUMP JUMPDEST PUSH2 0xC5F DUP2 PUSH2 0xC4B JUMP JUMPDEST DUP3 MSTORE POP POP JUMP JUMPDEST PUSH0 PUSH1 0xE0 DUP4 ADD PUSH0 DUP4 ADD MLOAD DUP5 DUP3 SUB PUSH0 DUP7 ADD MSTORE PUSH2 0xC7F DUP3 DUP3 PUSH2 0xBFB JUMP JUMPDEST SWAP2 POP POP PUSH1 0x20 DUP4 ADD MLOAD PUSH2 0xC94 PUSH1 0x20 DUP7 ADD DUP3 PUSH2 0xC3C JUMP JUMPDEST POP PUSH1 0x40 DUP4 ADD MLOAD PUSH2 0xCA7 PUSH1 0x40 DUP7 ADD DUP3 PUSH2 0xC3C JUMP JUMPDEST POP PUSH1 0x60 DUP4 ADD MLOAD PUSH2 0xCBA PUSH1 0x60 DUP7 ADD DUP3 PUSH2 0xC3C JUMP JUMPDEST POP PUSH1 0x80 DUP4 ADD MLOAD PUSH2 0xCCD PUSH1 0x80 DUP7 ADD DUP3 PUSH2 0xC3C JUMP JUMPDEST POP PUSH1 0xA0 DUP4 ADD MLOAD PUSH2 0xCE0 PUSH1 0xA0 DUP7 ADD DUP3 PUSH2 0xC56 JUMP JUMPDEST POP PUSH1 0xC0 DUP4 ADD MLOAD PUSH2 0xCF3 PUSH1 0xC0 DUP7 ADD DUP3 PUSH2 0xC56 JUMP JUMPDEST POP DUP1 SWAP2 POP POP SWAP3 SWAP2 POP POP JUMP JUMPDEST PUSH0 PUSH1 0x20 DUP3 ADD SWAP1 POP DUP2 DUP2 SUB PUSH0 DUP4 ADD MSTORE PUSH2 0xD16 DUP2 DUP5 PUSH2 0xC65 JUMP JUMPDEST SWAP1 POP SWAP3 SWAP2 POP POP JUMP JUMPDEST PUSH0 DUP1 REVERT JUMPDEST PUSH0 DUP1 REVERT JUMPDEST PUSH0 DUP1 REVERT JUMPDEST PUSH0 DUP1 DUP4 PUSH1 0x1F DUP5 ADD SLT PUSH2 0xD3F JUMPI PUSH2 0xD3E PUSH2 0xD1E JUMP JUMPDEST JUMPDEST DUP3 CALLDATALOAD SWAP1 POP PUSH8 0xFFFFFFFFFFFFFFFF DUP2 GT ISZERO PUSH2 0xD5C JUMPI PUSH2 0xD5B PUSH2 0xD22 JUMP JUMPDEST JUMPDEST PUSH1 0x20 DUP4 ADD SWAP2 POP DUP4 PUSH1 0x1 DUP3 MUL DUP4 ADD GT ISZERO PUSH2 0xD78 JUMPI PUSH2 0xD77 PUSH2 0xD26 JUMP JUMPDEST JUMPDEST SWAP3 POP SWAP3 SWAP1 POP JUMP JUMPDEST PUSH2 0xD88 DUP2 PUSH2 0xC33 JUMP JUMPDEST DUP2 EQ PUSH2 0xD92 JUMPI PUSH0 DUP1 REVERT JUMPDEST POP JUMP JUMPDEST PUSH0 DUP2 CALLDATALOAD SWAP1 POP PUSH2 0xDA3 DUP2 PUSH2 0xD7F JUMP JUMPDEST SWAP3 SWAP2 POP POP JUMP JUMPDEST PUSH0 DUP1 PUSH0 PUSH1 0x40 DUP5 DUP7 SUB SLT ISZERO PUSH2 0xDC0 JUMPI PUSH2 0xDBF PUSH2 0xB36 JUMP JUMPDEST JUMPDEST PUSH0 DUP5 ADD CALLDATALOAD PUSH8 0xFFFFFFFFFFFFFFFF DUP2 GT ISZERO PUSH2 0xDDD JUMPI PUSH2 0xDDC PUSH2 0xB3A JUMP JUMPDEST JUMPDEST PUSH2 0xDE9 DUP7 DUP3 DUP8 ADD PUSH2 0xD2A JUMP JUMPDEST SWAP4 POP SWAP4 POP POP PUSH1 0x20 PUSH2 0xDFC DUP7 DUP3 DUP8 ADD PUSH2 0xD95 JUMP JUMPDEST SWAP2 POP POP SWAP3 POP SWAP3 POP SWAP3 JUMP JUMPDEST PUSH0 PUSH1 0xFF DUP3 AND SWAP1 POP SWAP2 SWAP1 POP JUMP JUMPDEST PUSH2 0xE1B DUP2 PUSH2 0xE06 JUMP JUMPDEST DUP2 EQ PUSH2 0xE25 JUMPI PUSH0 DUP1 REVERT JUMPDEST POP JUMP JUMPDEST PUSH0 DUP2 CALLDATALOAD SWAP1 POP PUSH2 0xE36 DUP2 PUSH2 0xE12 JUMP JUMPDEST SWAP3 SWAP2 POP POP JUMP JUMPDEST PUSH0 PUSH1 0x20 DUP3 DUP5 SUB SLT ISZERO PUSH2 0xE51 JUMPI PUSH2 0xE50 PUSH2 0xB36 JUMP JUMPDEST JUMPDEST PUSH0 PUSH2 0xE5E DUP5 DUP3 DUP6 ADD PUSH2 0xE28 JUMP JUMPDEST SWAP2 POP POP SWAP3 SWAP2 POP POP JUMP JUMPDEST PUSH0 PUSH1 0x20 DUP3 DUP5 SUB SLT ISZERO PUSH2 0xE7C JUMPI PUSH2 0xE7B PUSH2 0xB36 JUMP JUMPDEST JUMPDEST PUSH0 PUSH2 0xE89 DUP5 DUP3 DUP6 ADD PUSH2 0xD95 JUMP JUMPDEST SWAP2 POP POP SWAP3 SWAP2 POP POP JUMP JUMPDEST PUSH2 0xE9B DUP2 PUSH2 0xC4B JUMP JUMPDEST DUP3 MSTORE POP POP JUMP JUMPDEST PUSH0 PUSH1 0x20 DUP3 ADD SWAP1 POP PUSH2 0xEB4 PUSH0 DUP4 ADD DUP5 PUSH2 0xE92 JUMP JUMPDEST SWAP3 SWAP2 POP POP JUMP JUMPDEST PUSH32 0x4E487B7100000000000000000000000000000000000000000000000000000000 PUSH0 MSTORE PUSH1 0x22 PUSH1 0x4 MSTORE PUSH1 0x24 PUSH0 REVERT JUMPDEST PUSH0 PUSH1 0x2 DUP3 DIV SWAP1 POP PUSH1 0x1 DUP3 AND DUP1 PUSH2 0xEFE JUMPI PUSH1 0x7F DUP3 AND SWAP2 POP JUMPDEST PUSH1 0x20 DUP3 LT DUP2 SUB PUSH2 0xF11 JUMPI PUSH2 0xF10 PUSH2 0xEBA JUMP JUMPDEST JUMPDEST POP SWAP2 SWAP1 POP JUMP JUMPDEST PUSH32 0x4E487B7100000000000000000000000000000000000000000000000000000000 PUSH0 MSTORE PUSH1 0x11 PUSH1 0x4 MSTORE PUSH1 0x24 PUSH0 REVERT JUMPDEST PUSH0 PUSH2 0xF4E DUP3 PUSH2 0xC33 JUMP JUMPDEST SWAP2 POP PUSH2 0xF59 DUP4 PUSH2 0xC33 JUMP JUMPDEST SWAP3 POP DUP3 DUP3 ADD SWAP1 POP DUP1 DUP3 GT ISZERO PUSH2 0xF71 JUMPI PUSH2 0xF70 PUSH2 0xF17 JUMP JUMPDEST JUMPDEST SWAP3 SWAP2 POP POP JUMP JUMPDEST PUSH32 0x4E487B7100000000000000000000000000000000000000000000000000000000 PUSH0 MSTORE PUSH1 0x41 PUSH1 0x4 MSTORE PUSH1 0x24 PUSH0 REVERT JUMPDEST PUSH0 DUP2 SWAP1 POP DUP2 PUSH0 MSTORE PUSH1 0x20 PUSH0 KECCAK256 SWAP1 POP SWAP2 SWAP1 POP JUMP JUMPDEST PUSH0 PUSH1 0x20 PUSH1 0x1F DUP4 ADD DIV SWAP1 POP SWAP2 SWAP1 POP JUMP JUMPDEST PUSH0 DUP3 DUP3 SHL SWAP1 POP SWAP3 SWAP2 POP POP JUMP JUMPDEST PUSH0 PUSH1 0x8 DUP4 MUL PUSH2 0x1000 PUSH32 0xFFFFFFFFFFFFFFFFFFFFFFFFFFFFFFFFFFFFFFFFFFFFFFFFFFFFFFFFFFFFFFFF DUP3 PUSH2 0xFC5 JUMP JUMPDEST PUSH2 0x100A DUP7 DUP4 PUSH2 0xFC5 JUMP JUMPDEST SWAP6 POP DUP1 NOT DUP5 AND SWAP4 POP DUP1 DUP7 AND DUP5 OR SWAP3 POP POP POP SWAP4 SWAP3 POP POP POP JUMP JUMPDEST PUSH0 DUP2 SWAP1 POP SWAP2 SWAP1 POP JUMP JUMPDEST PUSH0 PUSH2 0x1045 PUSH2 0x1040 PUSH2 0x103B DUP5 PUSH2 0xC33 JUMP JUMPDEST PUSH2 0x1022 JUMP JUMPDEST PUSH2 0xC33 JUMP JUMPDEST SWAP1 POP SWAP2 SWAP1 POP JUMP JUMPDEST PUSH0 DUP2 SWAP1 POP SWAP2 SWAP1 POP JUMP JUMPDEST PUSH2 0x105E DUP4 PUSH2 0x102B JUMP JUMPDEST PUSH2 0x1072 PUSH2 0x106A DUP3 PUSH2 0x104C JUMP JUMPDEST DUP5 DUP5 SLOAD PUSH2 0xFD1 JUMP JUMPDEST DUP3 SSTORE POP POP POP POP JUMP JUMPDEST PUSH0 SWAP1 JUMP JUMPDEST PUSH2 0x1086 PUSH2 0x107A JUMP JUMPDEST PUSH2 0x1091 DUP2 DUP5 DUP5 PUSH2 0x1055 JUMP JUMPDEST POP POP POP JUMP JUMPDEST JUMPDEST DUP2 DUP2 LT ISZERO PUSH2 0x10B4 JUMPI PUSH2 0x10A9 PUSH0 DUP3 PUSH2 0x107E JUMP JUMPDEST PUSH1 0x1 DUP2 ADD SWAP1 POP PUSH2 0x1097 JUMP JUMPDEST POP POP JUMP JUMPDEST PUSH1 0x1F DUP3 GT ISZERO PUSH2 0x10F9 JUMPI PUSH2 0x10CA DUP2 PUSH2 0xFA4 JUMP JUMPDEST PUSH2 0x10D3 DUP5 PUSH2 0xFB6 JUMP JUMPDEST DUP2 ADD PUSH1 0x20 DUP6 LT ISZERO PUSH2 0x10E2 JUMPI DUP2 SWAP1 POP JUMPDEST PUSH2 0x10F6 PUSH2 0x10EE DUP6 PUSH2 0xFB6 JUMP JUMPDEST DUP4 ADD DUP3 PUSH2 0x1096 JUMP JUMPDEST POP POP JUMPDEST POP POP POP JUMP JUMPDEST PUSH0 DUP3 DUP3 SHR SWAP1 POP SWAP3 SWAP2 POP POP JUMP JUMPDEST PUSH0 PUSH2 0x1119 PUSH0 NOT DUP5 PUSH1 0x8 MUL PUSH2 0x10FE JUMP JUMPDEST NOT DUP1 DUP4 AND SWAP2 POP POP SWAP3 SWAP2 POP POP JUMP JUMPDEST PUSH0 PUSH2 0x1131 DUP4 DUP4 PUSH2 0x110A JUMP JUMPDEST SWAP2 POP DUP3 PUSH1 0x2 MUL DUP3 OR SWAP1 POP SWAP3 SWAP2 POP POP JUMP JUMPDEST PUSH2 0x114A DUP3 PUSH2 0xBC3 JUMP JUMPDEST PUSH8 0xFFFFFFFFFFFFFFFF DUP2 GT ISZERO PUSH2 0x1163 JUMPI PUSH2 0x1162 PUSH2 0xF77 JUMP JUMPDEST JUMPDEST PUSH2 0x116D DUP3 SLOAD PUSH2 0xEE7 JUMP JUMPDEST PUSH2 0x1178 DUP3 DUP3 DUP6 PUSH2 0x10B8 JUMP JUMPDEST PUSH0 PUSH1 0x20 SWAP1 POP PUSH1 0x1F DUP4 GT PUSH1 0x1 DUP2 EQ PUSH2 0x11A9 JUMPI PUSH0 DUP5 ISZERO PUSH2 0x1197 JUMPI DUP3 DUP8 ADD MLOAD SWAP1 POP JUMPDEST PUSH2 0x11A1 DUP6 DUP3 PUSH2 0x1126 JUMP JUMPDEST DUP7 SSTORE POP PUSH2 0x1208 JUMP JUMPDEST PUSH1 0x1F NOT DUP5 AND PUSH2 0x11B7 DUP7 PUSH2 0xFA4 JUMP JUMPDEST PUSH0 JUMPDEST DUP3 DUP2 LT ISZERO PUSH2 0x11DE JUMPI DUP5 DUP10 ADD MLOAD DUP3 SSTORE PUSH1 0x1 DUP3 ADD SWAP2 POP PUSH1 0x20 DUP6 ADD SWAP5 POP PUSH1 0x20 DUP2 ADD SWAP1 POP PUSH2 0x11B9 JUMP JUMPDEST DUP7 DUP4 LT ISZERO PUSH2 0x11FB JUMPI DUP5 DUP10 ADD MLOAD PUSH2 0x11F7 PUSH1 0x1F DUP10 AND DUP3 PUSH2 0x110A JUMP JUMPDEST DUP4 SSTORE POP JUMPDEST PUSH1 0x1 PUSH1 0x2 DUP9 MUL ADD DUP9 SSTORE POP POP POP JUMPDEST POP POP POP POP POP POP JUMP JUMPDEST PUSH0 DUP3 DUP3 MSTORE PUSH1 0x20 DUP3 ADD SWAP1 POP SWAP3 SWAP2 POP POP JUMP JUMPDEST PUSH32 0x416464726573732068617320616C726561647920766F74656400000000000000 PUSH0 DUP3 ADD MSTORE POP JUMP JUMPDEST PUSH0 PUSH2 0x1254 PUSH1 0x19 DUP4 PUSH2 0x1210 JUMP JUMPDEST SWAP2 POP PUSH2 0x125F DUP3 PUSH2 0x1220 JUMP JUMPDEST PUSH1 0x20 DUP3 ADD SWAP1 POP SWAP2 SWAP1 POP JUMP JUMPDEST PUSH0 PUSH1 0x20 DUP3 ADD SWAP1 POP DUP2 DUP2 SUB PUSH0 DUP4 ADD MSTORE PUSH2 0x1281 DUP2 PUSH2 0x1248 JUMP JUMPDEST SWAP1 POP SWAP2 SWAP1 POP JUMP JUMPDEST PUSH0 PUSH2 0x1292 DUP3 PUSH2 0xC33 JUMP JUMPDEST SWAP2 POP PUSH2 0x129D DUP4 PUSH2 0xC33 JUMP JUMPDEST SWAP3 POP DUP3 DUP3 SUB SWAP1 POP DUP2 DUP2 GT ISZERO PUSH2 0x12B5 JUMPI PUSH2 0x12B4 PUSH2 0xF17 JUMP JUMPDEST JUMPDEST SWAP3 SWAP2 POP POP JUMP JUMPDEST PUSH32 0x4E487B7100000000000000000000000000000000000000000000000000000000 PUSH0 MSTORE PUSH1 0x32 PUSH1 0x4 MSTORE PUSH1 0x24 PUSH0 REVERT JUMPDEST PUSH32 0x4E487B7100000000000000000000000000000000000000000000000000000000 PUSH0 MSTORE PUSH1 0x12 PUSH1 0x4 MSTORE PUSH1 0x24 PUSH0 REVERT JUMPDEST PUSH0 PUSH2 0x131F DUP3 PUSH2 0xC33 JUMP JUMPDEST SWAP2 POP PUSH2 0x132A DUP4 PUSH2 0xC33 JUMP JUMPDEST SWAP3 POP DUP3 PUSH2 0x133A JUMPI PUSH2 0x1339 PUSH2 0x12E8 JUMP JUMPDEST JUMPDEST DUP3 DUP3 MOD SWAP1 POP SWAP3 SWAP2 POP POP JUMP JUMPDEST PUSH0 PUSH2 0x134F DUP3 PUSH2 0xC33 JUMP JUMPDEST SWAP2 POP PUSH2 0x135A DUP4 PUSH2 0xC33 JUMP JUMPDEST SWAP3 POP DUP3 PUSH2 0x136A JUMPI PUSH2 0x1369 PUSH2 0x12E8 JUMP JUMPDEST JUMPDEST DUP3 DUP3 DIV SWAP1 POP SWAP3 SWAP2 POP POP JUMP INVALID LOG2 PUSH5 0x6970667358 0x22 SLT KECCAK256 0xBE 0xD5 PUSH8 0xDD28A325C860A9C3 0xB2 0xED SWAP3 0xFC COINBASE 0xA9 LOG2 MSTORE8 RETURNDATACOPY 0xE7 0x2B EXTCODECOPY DUP11 PUSH12 0xF107A88A78434964736F6C63 NUMBER STOP ADDMOD BYTE STOP CALLER "
				},
				"gasEstimates": {
					"creation": {
						"codeDepositCost": "1007000",
						"executionCost": "73885",
						"totalCost": "1080885"
					},
					"external": {
						"create(string,uint256)": "infinite",
						"getCurrentProposal()": "infinite",
						"getProposal(uint256)": "infinite",
						"isVoted(address)": "infinite",
						"setOwner(address)": "26882",
						"teminateProposal()": "33210",
						"vote(uint8)": "infinite"
					},
					"internal": {
						"calculateCurrentState()": "infinite"
					}
				},
				"methodIdentifiers": {
					"create(string,uint256)": "46f81a87",
					"getCurrentProposal()": "41ec6870",
					"getProposal(uint256)": "c7f758a8",
					"isVoted(address)": "cbff75cb",
					"setOwner(address)": "13af4035",
					"teminateProposal()": "89190393",
					"vote(uint8)": "b3f98adc"
				}
			},
			"storageLayout": {
				"storage": [
					{
						"astId": 3,
						"contract": "proposal.sol:ProposalContract",
						"label": "owner",
						"offset": 0,
						"slot": "0",
						"type": "t_address"
					},
					{
						"astId": 5,
						"contract": "proposal.sol:ProposalContract",
						"label": "counter",
						"offset": 0,
						"slot": "1",
						"type": "t_uint256"
					},
					{
						"astId": 25,
						"contract": "proposal.sol:ProposalContract",
						"label": "proposal_history",
						"offset": 0,
						"slot": "2",
						"type": "t_mapping(t_uint256,t_struct(Proposal)20_storage)"
					},
					{
						"astId": 28,
						"contract": "proposal.sol:ProposalContract",
						"label": "voted_addresses",
						"offset": 0,
						"slot": "3",
						"type": "t_array(t_address)dyn_storage"
					}
				],
				"types": {
					"t_address": {
						"encoding": "inplace",
						"label": "address",
						"numberOfBytes": "20"
					},
					"t_array(t_address)dyn_storage": {
						"base": "t_address",
						"encoding": "dynamic_array",
						"label": "address[]",
						"numberOfBytes": "32"
					},
					"t_bool": {
						"encoding": "inplace",
						"label": "bool",
						"numberOfBytes": "1"
					},
					"t_mapping(t_uint256,t_struct(Proposal)20_storage)": {
						"encoding": "mapping",
						"key": "t_uint256",
						"label": "mapping(uint256 => struct ProposalContract.Proposal)",
						"numberOfBytes": "32",
						"value": "t_struct(Proposal)20_storage"
					},
					"t_string_storage": {
						"encoding": "bytes",
						"label": "string",
						"numberOfBytes": "32"
					},
					"t_struct(Proposal)20_storage": {
						"encoding": "inplace",
						"label": "struct ProposalContract.Proposal",
						"members": [
							{
								"astId": 7,
								"contract": "proposal.sol:ProposalContract",
								"label": "description",
								"offset": 0,
								"slot": "0",
								"type": "t_string_storage"
							},
							{
								"astId": 9,
								"contract": "proposal.sol:ProposalContract",
								"label": "approve",
								"offset": 0,
								"slot": "1",
								"type": "t_uint256"
							},
							{
								"astId": 11,
								"contract": "proposal.sol:ProposalContract",
								"label": "reject",
								"offset": 0,
								"slot": "2",
								"type": "t_uint256"
							},
							{
								"astId": 13,
								"contract": "proposal.sol:ProposalContract",
								"label": "pass",
								"offset": 0,
								"slot": "3",
								"type": "t_uint256"
							},
							{
								"astId": 15,
								"contract": "proposal.sol:ProposalContract",
								"label": "total_vote_to_end",
								"offset": 0,
								"slot": "4",
								"type": "t_uint256"
							},
							{
								"astId": 17,
								"contract": "proposal.sol:ProposalContract",
								"label": "current_state",
								"offset": 0,
								"slot": "5",
								"type": "t_bool"
							},
							{
								"astId": 19,
								"contract": "proposal.sol:ProposalContract",
								"label": "is_active",
								"offset": 1,
								"slot": "5",
								"type": "t_bool"
							}
						],
						"numberOfBytes": "192"
					},
					"t_uint256": {
						"encoding": "inplace",
						"label": "uint256",
						"numberOfBytes": "32"
					}
				}
			},
			"userdoc": {
				"kind": "user",
				"methods": {},
				"version": 1
			}
		}
	}
}